{"abi":[{"type":"constructor","inputs":[{"name":"_agent","type":"address","internalType":"address"},{"name":"_router","type":"address","internalType":"address payable"},{"name":"_verifier","type":"address","internalType":"address"},{"name":"_owner","type":"address","internalType":"address"}],"stateMutability":"nonpayable"},{"type":"function","name":"acceptOwnership","inputs":[],"outputs":[],"stateMutability":"nonpayable"},{"type":"function","name":"addPendingOrder","inputs":[{"name":"_order","type":"tuple","internalType":"struct ZDPc.Order","components":[{"name":"t","type":"tuple","internalType":"struct ZDPc.OrderDetails","components":[{"name":"swapper","type":"address","internalType":"address"},{"name":"recipient","type":"address","internalType":"address"},{"name":"tokenIn","type":"address","internalType":"address"},{"name":"tokenOut","type":"address","internalType":"address"},{"name":"exchangeRate","type":"uint256","internalType":"uint256"},{"name":"deadline","type":"uint256","internalType":"uint256"},{"name":"OrderIsExecuted","type":"bool","internalType":"bool"},{"name":"isMultiPath","type":"bool","internalType":"bool"},{"name":"encodedPath","type":"bytes","internalType":"bytes"}]},{"name":"HOsF","type":"bytes16","internalType":"bytes16"},{"name":"HOsE","type":"bytes16","internalType":"bytes16"}]}],"outputs":[],"stateMutability":"nonpayable"},{"type":"function","name":"agent","inputs":[],"outputs":[{"name":"","type":"address","internalType":"address"}],"stateMutability":"view"},{"type":"function","name":"cancelOrder","inputs":[{"name":"index","type":"uint256","internalType":"uint256"}],"outputs":[],"stateMutability":"nonpayable"},{"type":"function","name":"depositForGasFee","inputs":[{"name":"swapper","type":"address","internalType":"address"}],"outputs":[],"stateMutability":"payable"},{"type":"function","name":"gasfee","inputs":[{"name":"","type":"address","internalType":"address"}],"outputs":[{"name":"","type":"uint256","internalType":"uint256"}],"stateMutability":"view"},{"type":"function","name":"orderbook","inputs":[{"name":"","type":"address","internalType":"address"},{"name":"","type":"uint256","internalType":"uint256"}],"outputs":[{"name":"t","type":"tuple","internalType":"struct ZDPc.OrderDetails","components":[{"name":"swapper","type":"address","internalType":"address"},{"name":"recipient","type":"address","internalType":"address"},{"name":"tokenIn","type":"address","internalType":"address"},{"name":"tokenOut","type":"address","internalType":"address"},{"name":"exchangeRate","type":"uint256","internalType":"uint256"},{"name":"deadline","type":"uint256","internalType":"uint256"},{"name":"OrderIsExecuted","type":"bool","internalType":"bool"},{"name":"isMultiPath","type":"bool","internalType":"bool"},{"name":"encodedPath","type":"bytes","internalType":"bytes"}]},{"name":"HOsF","type":"bytes16","internalType":"bytes16"},{"name":"HOsE","type":"bytes16","internalType":"bytes16"}],"stateMutability":"view"},{"type":"function","name":"owner","inputs":[],"outputs":[{"name":"","type":"address","internalType":"address"}],"stateMutability":"view"},{"type":"function","name":"pendingOwner","inputs":[],"outputs":[{"name":"","type":"address","internalType":"address"}],"stateMutability":"view"},{"type":"function","name":"renounceOwnership","inputs":[],"outputs":[],"stateMutability":"nonpayable"},{"type":"function","name":"router","inputs":[],"outputs":[{"name":"","type":"address","internalType":"contract ISwapRouter"}],"stateMutability":"view"},{"type":"function","name":"setAgent","inputs":[{"name":"_agent","type":"address","internalType":"address"}],"outputs":[],"stateMutability":"nonpayable"},{"type":"function","name":"setRouter","inputs":[{"name":"_router","type":"address","internalType":"address"}],"outputs":[],"stateMutability":"nonpayable"},{"type":"function","name":"setVerifier","inputs":[{"name":"_verifier","type":"address","internalType":"address"}],"outputs":[],"stateMutability":"nonpayable"},{"type":"function","name":"swapForward","inputs":[{"name":"_proofA","type":"uint256[2]","internalType":"uint256[2]"},{"name":"_proofB","type":"uint256[2][2]","internalType":"uint256[2][2]"},{"name":"_proofC","type":"uint256[2]","internalType":"uint256[2]"},{"name":"swapper","type":"address","internalType":"address"},{"name":"index","type":"uint256","internalType":"uint256"},{"name":"a0e","type":"uint256","internalType":"uint256"},{"name":"a1m","type":"uint256","internalType":"uint256"},{"name":"_gasFee","type":"uint256","internalType":"uint256"},{"name":"_type","type":"uint8","internalType":"enum ZDPc.OrderType"}],"outputs":[],"stateMutability":"nonpayable"},{"type":"function","name":"transferOwnership","inputs":[{"name":"newOwner","type":"address","internalType":"address"}],"outputs":[],"stateMutability":"nonpayable"},{"type":"function","name":"verifier","inputs":[],"outputs":[{"name":"","type":"address","internalType":"contract Groth16Verifier"}],"stateMutability":"view"},{"type":"function","name":"withdrawGasFee","inputs":[{"name":"amount","type":"uint256","internalType":"uint256"}],"outputs":[],"stateMutability":"nonpayable"},{"type":"function","name":"withdrawTakenFee","inputs":[],"outputs":[],"stateMutability":"nonpayable"},{"type":"event","name":"AgentChanged","inputs":[{"name":"oldAgent","type":"address","indexed":true,"internalType":"address"},{"name":"newAgent","type":"address","indexed":true,"internalType":"address"}],"anonymous":false},{"type":"event","name":"FeeDeposit","inputs":[{"name":"swapper","type":"address","indexed":true,"internalType":"address"},{"name":"fee","type":"uint256","indexed":true,"internalType":"uint256"}],"anonymous":false},{"type":"event","name":"FeeTaken","inputs":[{"name":"swapper","type":"address","indexed":true,"internalType":"address"},{"name":"fee","type":"uint256","indexed":true,"internalType":"uint256"}],"anonymous":false},{"type":"event","name":"FeeWithdrawn","inputs":[{"name":"swapper","type":"address","indexed":true,"internalType":"address"},{"name":"fee","type":"uint256","indexed":true,"internalType":"uint256"}],"anonymous":false},{"type":"event","name":"OrderCancelled","inputs":[{"name":"swapper","type":"address","indexed":false,"internalType":"address"},{"name":"index","type":"uint256","indexed":true,"internalType":"uint256"},{"name":"tokenIn","type":"address","indexed":false,"internalType":"address"},{"name":"tokenOut","type":"address","indexed":false,"internalType":"address"},{"name":"exchangeRate","type":"uint256","indexed":false,"internalType":"uint256"},{"name":"deadline","type":"uint256","indexed":false,"internalType":"uint256"},{"name":"OrderIsExecuted","type":"bool","indexed":false,"internalType":"bool"}],"anonymous":false},{"type":"event","name":"OrderExecuted","inputs":[{"name":"swapper","type":"address","indexed":false,"internalType":"address"},{"name":"index","type":"uint256","indexed":true,"internalType":"uint256"},{"name":"tokenIn","type":"address","indexed":false,"internalType":"address"},{"name":"tokenOut","type":"address","indexed":false,"internalType":"address"},{"name":"exchangeRate","type":"uint256","indexed":false,"internalType":"uint256"},{"name":"deadline","type":"uint256","indexed":false,"internalType":"uint256"},{"name":"OrderIsExecuted","type":"bool","indexed":false,"internalType":"bool"}],"anonymous":false},{"type":"event","name":"OrderStored","inputs":[{"name":"swapper","type":"address","indexed":true,"internalType":"address"},{"name":"index","type":"uint256","indexed":true,"internalType":"uint256"},{"name":"tokenIn","type":"address","indexed":false,"internalType":"address"},{"name":"tokenOut","type":"address","indexed":false,"internalType":"address"},{"name":"exchangeRate","type":"uint256","indexed":false,"internalType":"uint256"},{"name":"deadline","type":"uint256","indexed":false,"internalType":"uint256"},{"name":"OrderIsExecuted","type":"bool","indexed":false,"internalType":"bool"}],"anonymous":false},{"type":"event","name":"OwnershipTransferStarted","inputs":[{"name":"previousOwner","type":"address","indexed":true,"internalType":"address"},{"name":"newOwner","type":"address","indexed":true,"internalType":"address"}],"anonymous":false},{"type":"event","name":"OwnershipTransferred","inputs":[{"name":"previousOwner","type":"address","indexed":true,"internalType":"address"},{"name":"newOwner","type":"address","indexed":true,"internalType":"address"}],"anonymous":false},{"type":"event","name":"RouterChanged","inputs":[{"name":"oldRouter","type":"address","indexed":true,"internalType":"address"},{"name":"newRouter","type":"address","indexed":true,"internalType":"address"}],"anonymous":false},{"type":"event","name":"TakenFeeWithdrawn","inputs":[{"name":"owner","type":"address","indexed":true,"internalType":"address"},{"name":"fee","type":"uint256","indexed":true,"internalType":"uint256"}],"anonymous":false},{"type":"event","name":"VerifierChanged","inputs":[{"name":"oldVerifier","type":"address","indexed":true,"internalType":"address"},{"name":"newVerifier","type":"address","indexed":true,"internalType":"address"}],"anonymous":false},{"type":"error","name":"OwnableInvalidOwner","inputs":[{"name":"owner","type":"address","internalType":"address"}]},{"type":"error","name":"OwnableUnauthorizedAccount","inputs":[{"name":"account","type":"address","internalType":"address"}]},{"type":"error","name":"ReentrancyGuardReentrantCall","inputs":[]}],"bytecode":{"object":"0x608060405234801561001057600080fd5b5060405161311b38038061311b83398101604081905261002f9161016a565b806001600160a01b03811661005e57604051631e4fbdf760e01b81526000600482015260240160405180910390fd5b610067816100e9565b5060016002556001600160a01b03841661008057600080fd5b6001600160a01b03831661009357600080fd5b6001600160a01b0382166100a657600080fd5b50600380546001600160a01b039485166001600160a01b0319918216179091556004805493851693821693909317909255600580549190931691161790556101c9565b600180546001600160a01b031916905561010281610105565b50565b600080546001600160a01b038381166001600160a01b0319831681178455604051919092169283917f8be0079c531659141344cd1fd0a4f28419497f9722a3daafe3b4186f6b6457e09190a35050565b6001600160a01b038116811461010257600080fd5b6000806000806080858703121561018057600080fd5b845161018b81610155565b602086015190945061019c81610155565b60408601519093506101ad81610155565b60608601519092506101be81610155565b939692955090935050565b612f43806101d86000396000f3fe6080604052600436106101145760003560e01c80638abfcba3116100a0578063c7d0862d11610064578063c7d0862d146102e3578063e30c397814610312578063f2fde38b14610330578063f5ff5c7614610350578063f887ea401461037057600080fd5b80638abfcba31461022a5780638da5cb5b14610265578063bcf685ed14610283578063c0d78655146102a3578063c680993b146102c357600080fd5b80635437988d116100e75780635437988d146101b857806356ab9955146101d85780636b5da867146101ed578063715018a61461020057806379ba50971461021557600080fd5b806319c0f1ce146101195780632b7ac3f31461013b578063458f9a8614610178578063514fcac714610198575b600080fd5b34801561012557600080fd5b5061013961013436600461258c565b610390565b005b34801561014757600080fd5b5060055461015b906001600160a01b031681565b6040516001600160a01b0390911681526020015b60405180910390f35b34801561018457600080fd5b506101396101933660046125d2565b6104ea565b3480156101a457600080fd5b506101396101b336600461258c565b610cf7565b3480156101c457600080fd5b506101396101d3366004612674565b61137b565b3480156101e457600080fd5b506101396113d5565b6101396101fb366004612674565b611558565b34801561020c57600080fd5b50610139611664565b34801561022157600080fd5b50610139611676565b34801561023657600080fd5b50610257610245366004612674565b60076020526000908152604090205481565b60405190815260200161016f565b34801561027157600080fd5b506000546001600160a01b031661015b565b34801561028f57600080fd5b5061013961029e366004612674565b6116b7565b3480156102af57600080fd5b506101396102be366004612674565b611711565b3480156102cf57600080fd5b506101396102de3660046127b9565b61176b565b3480156102ef57600080fd5b506103036102fe3660046128fd565b611967565b60405161016f93929190612977565b34801561031e57600080fd5b506001546001600160a01b031661015b565b34801561033c57600080fd5b5061013961034b366004612674565b611ac4565b34801561035c57600080fd5b5060035461015b906001600160a01b031681565b34801561037c57600080fd5b5060045461015b906001600160a01b031681565b610398611b35565b600081116103a557600080fd5b336000908152600760205260409020548111156104015760405162461bcd60e51b81526020600482015260156024820152744e6f20656e6f7567682066656520746f2074616b6560581b60448201526064015b60405180910390fd5b3360009081526007602052604081208054839290610420908490612a6f565b9091555050604051600090339083908381818185875af1925050503d8060008114610467576040519150601f19603f3d011682016040523d82523d6000602084013e61046c565b606091505b50509050806104af5760405162461bcd60e51b815260206004820152600f60248201526e1d1c985b9cd9995c8819985a5b1959608a1b60448201526064016103f8565b604051829033907f78473f3f373f7673597f4f0fa5873cb4d375fea6d4339ad6b56dbd411513cb3f90600090a3506104e76001600255565b50565b6003546001600160a01b0316331461054e5760405162461bcd60e51b815260206004820152602160248201527f6f6e6c79206167656e742063616e2063616c6c20746869732066756e6374696f6044820152603760f91b60648201526084016103f8565b6001600160a01b038616600090815260066020526040812080548790811061057857610578612a82565b6000918252602090912060408051610180810190915260099092020180546001600160a01b03908116606084019081526001830154821660808501526002830154821660a0850152600383015490911660c0840152600482015460e0840152600582015461010080850191909152600683015460ff808216151561012087015291900416151561014084015260078201805484929184916101608501919061061f90612a98565b80601f016020809104026020016040519081016040528092919081815260200182805461064b90612a98565b80156106985780601f1061066d57610100808354040283529160200191610698565b820191906000526020600020905b81548152906001019060200180831161067b57829003601f168201915b505050919092525050508152600891909101546001600160801b0319608082811b8216602080860191909152600160801b909304901b16604092830152825190810151918101516060909101519293509091866106fd89670de0b6b3a7640000612ad2565b6107079190612ae9565b845160800151111561074e5760405162461bcd60e51b815260206004820152601060248201526f6261642065786368616e67655261746560801b60448201526064016103f8565b835160c00151156107945760405162461bcd60e51b815260206004820152601060248201526f185b1c9958591e48195e1958dd5d195960821b60448201526064016103f8565b835160a001514211156107d95760405162461bcd60e51b815260206004820152600d60248201526c1bdc99195c88195e1c1a5c9959609a1b60448201526064016103f8565b6107e1612520565b602085015160801c8160006020020152604085015160801c816001602002015288816002602002015287816003602002018181525050600560009054906101000a90046001600160a01b03166001600160a01b0316635fe8c13b8f8f8f856040518563ffffffff1660e01b815260040161085e9493929190612b0b565b602060405180830381865afa15801561087b573d6000803e3d6000fd5b505050506040513d601f19601f8201168201806040525081019061089f9190612b7d565b6108e05760405162461bcd60e51b8152602060048201526012602482015271141c9bdbd9881a5cc81b9bdd081d985b1a5960721b60448201526064016103f8565b6108ec8333308c611b5d565b6004546109049084906001600160a01b03168b611c67565b600086600181111561091857610918612b9a565b03610a4d57845160e00151156109d6576040805160a080820183528751610100015182526001600160a01b03808816602084015288519091015182840152606082018c9052608082018b905260048054935163c04b8d5960e01b815292939091169163c04b8d599161098c91859101612c01565b6020604051808303816000875af11580156109ab573d6000803e3d6000fd5b505050506040513d601f19601f820116820180604052508101906109cf9190612c14565b5050610c18565b60408051610100810182526001600160a01b0380861682528481166020830152610bb8828401528681166060830152875160a090810151608084015282018c905260c082018b9052600060e083015260048054935163414bf38960e01b815292939091169163414bf3899161098c91859101612ca2565b6001866001811115610a6157610a61612b9a565b03610c1857845160e0015160009015610b23576040805160a080820183528851610100015182526001600160a01b03808916602084015289519091015182840152606082018c9052608082018d9052600480549351631e51809360e31b815292939091169163f28c049891610ad891859101612c01565b6020604051808303816000875af1158015610af7573d6000803e3d6000fd5b505050506040513d601f19601f82011682018060405250810190610b1b9190612c14565b915050610be1565b60408051610100810182526001600160a01b0380871682528581166020830152610bb8828401528781166060830152885160a090810151608084015282018c905260c082018d9052600060e0830152600480549351631b67c43360e31b815292939091169163db3e219891610b9a91859101612ca2565b6020604051808303816000875af1158015610bb9573d6000803e3d6000fd5b505050506040513d601f19601f82011682018060405250810190610bdd9190612c14565b9150505b89811015610c1657600454610c029085906001600160a01b03166000611c67565b610c168433610c11848e612a6f565b611d67565b505b6001600160a01b038b1660009081526006602052604090208054600191908c908110610c4657610c46612a82565b60009182526020909120600990910201600601805460ff1916911515919091179055845151610c759088611e60565b897ff235922b876688d636d7f228c123359235291c29677d901bee94c77f061f42698660000151600001518760000151604001518860000151606001518960000151608001518a6000015160a001518b6000015160c00151604051610cdf96959493929190612cb1565b60405180910390a25050505050505050505050505050565b336000908152600660205260409020805482908110610d1857610d18612a82565b600091825260209091206006600990920201015460ff1615610d6f5760405162461bcd60e51b815260206004820152601060248201526f185b1c9958591e48195e1958dd5d195960821b60448201526064016103f8565b336000908152600660205260408120805483908110610d9057610d90612a82565b60009182526020909120600160099092020101546001600160a01b031603610dfa5760405162461bcd60e51b815260206004820152601860248201527f726563697069656e7420646f6573206e6f74206578697374000000000000000060448201526064016103f8565b6040805161018081018252600060608083018281526080840183905260a0840183905260c0840183905260e08401839052610100840183905261012084018390526101408401839052610160840191909152825260208083018290528284018290523382526006905291909120805490610e75600183612a6f565b81548110610e8557610e85612a82565b6000918252602090912060408051610180810190915260099092020180546001600160a01b03908116606084019081526001830154821660808501526002830154821660a0850152600383015490911660c0840152600482015460e0840152600582015461010080850191909152600683015460ff8082161515610120870152919004161515610140840152600782018054849291849161016085019190610f2c90612a98565b80601f0160208091040260200160405190810160405280929190818152602001828054610f5890612a98565b8015610fa55780601f10610f7a57610100808354040283529160200191610fa5565b820191906000526020600020905b815481529060010190602001808311610f8857829003601f168201915b505050919092525050508152600891909101546001600160801b0319608082811b8216602080860191909152600160801b909304901b166040928301523360009081526006909152208054919350908490811061100457611004612a82565b600091825260208083203384526006909152604090922060099091029091019061102f600184612a6f565b8154811061103f5761103f612a82565b60009182526020909120825460099092020180546001600160a01b03199081166001600160a01b0393841617825560018085015490830180548316918516919091179055600280850154908301805483169185169190911790556003808501549083018054909216931692909217909155600480830154908201556005808301549082015560068083018054918301805460ff938416151560ff19821681178355925461010090819004909416151590930261ff001990921661ffff1990931692909217179055818160078082019061111a90840182612d31565b505050600891820180549190920180546001600160801b0319166fffffffffffffffffffffffffffffffff92831690811782559254600160801b90819004909216909102909117905533600090815260066020526040902080548391908590811061118757611187612a82565b60009182526020918290208351805160099390930290910180546001600160a01b03199081166001600160a01b039485161782559382015160018201805486169185169190911790556040820151600282018054861691851691909117905560608201516003820180549095169316929092179092556080820151600482015560a0820151600582015560c082015160068201805460e085015161ffff1990911692151561ff001916929092176101009215158302179055820151909190829060078201906112569082612e11565b505050602082810151604093840151608090811c600160801b0291901c1760089092019190915533600090815260069091522080548061129857611298612ec8565b60008281526020812060096000199093019283020180546001600160a01b0319908116825560018201805482169055600282018054821690556003820180549091169055600481018290556005810182905560068101805461ffff19169055908181611307600783018261253e565b505060006008929092019190915550905581516040808201516060830151608084015160a085015160c090950151935188957f33908de3197827f2ef40153d9c3d3ea8c493ef3137279ee71e8acbd4998231049561136e9533959094909390929190612cb1565b60405180910390a2505050565b611383611fc8565b600580546001600160a01b038381166001600160a01b0319831681179093556040519116919082907f0ddda8be1021ab00f63727c5c5504ad96b163269770a3fe8ac3dd0bcb40208df90600090a35050565b6113dd611fc8565b6113e5611b35565b6000600760006113fd6000546001600160a01b031690565b6001600160a01b03166001600160a01b031681526020019081526020016000205490506000600760006114386000546001600160a01b031690565b6001600160a01b03166001600160a01b031681526020019081526020016000208190555060006114706000546001600160a01b031690565b6001600160a01b03168260405160006040518083038185875af1925050503d80600081146114ba576040519150601f19603f3d011682016040523d82523d6000602084013e6114bf565b606091505b50509050806115025760405162461bcd60e51b815260206004820152600f60248201526e1d1c985b9cd9995c8819985a5b1959608a1b60448201526064016103f8565b816115156000546001600160a01b031690565b6001600160a01b03167f6b18e5ec1eb85e65aec1256ffdeead20d0d855853dfa10c96d4144d9310cf5ec60405160405180910390a350506115566001600255565b565b600034116115a85760405162461bcd60e51b815260206004820152601e60248201527f6465706f736974206d757374206265206e6f6e2d7a65726f2076616c7565000060448201526064016103f8565b6001600160a01b0381166115fe5760405162461bcd60e51b815260206004820181905260248201527f73776170706572206d757374206265206e6f6e2d7a65726f206164647265737360448201526064016103f8565b6001600160a01b03811660009081526007602052604081208054349290611626908490612ede565b909155505060405134906001600160a01b038316907fa8491ef03ac2868e696ed75957d04a1175eb88946dbc13ee05e75040c8db91d990600090a350565b61166c611fc8565b6115566000611ff5565b60015433906001600160a01b031681146116ae5760405163118cdaa760e01b81526001600160a01b03821660048201526024016103f8565b6104e781611ff5565b6116bf611fc8565b600380546001600160a01b038381166001600160a01b0319831681179093556040519116919082907fb21f1bf0d206b43eb02be4f423c2788a95affbda226125eaecabe3def8ba5c4290600090a35050565b611719611fc8565b600480546001600160a01b038381166001600160a01b0319831681179093556040519116919082907fc736654a613824c69968e0ec25ac1a428ccd49e15c28e97b5dfd2c6059757e2a90600090a35050565b6117748161200e565b50805160c00151156117bd5760405162461bcd60e51b815260206004820152601260248201527118d85b9b9bdd08189948195e1958dd5d195960721b60448201526064016103f8565b8051516001600160a01b03908116600090815260066020818152604080842054865151861685528185208054600180820183559187529584902088518051600990980290910180546001600160a01b0319908116988a1698909817815594810151918501805488169289169290921790915591820151600284018054871691881691909117905560608201516003840180549096169616959095179093556080830151600482015560a0830151600582015560c0830151918101805460e085015161ffff1990911693151561ff00191693909317610100931515840217905590820151849290829060078201906118b49082612e11565b5050506020820151604092830151608090811c600160801b0291811c9190911760089092019190915583518083015160608201519282015160a083015160c0909301519451869533957f826fc39d393249494f77103f254d6f9898501dd89e65f6c040ebbf359bcb76259561195b95949193919290916001600160a01b03958616815293909416602084015260408301919091526060820152901515608082015260a00190565b60405180910390a35050565b6006602052816000526040600020818154811061198357600080fd5b60009182526020918290206040805161012081018252600990930290910180546001600160a01b039081168452600182015481169484019490945260028101548416918301919091526003810154909216606082015260048201546080820152600582015460a0820152600682015460ff808216151560c08401526101009182900416151560e083015260078301805493955091935084929084019190611a2990612a98565b80601f0160208091040260200160405190810160405280929190818152602001828054611a5590612a98565b8015611aa25780601f10611a7757610100808354040283529160200191611aa2565b820191906000526020600020905b815481529060010190602001808311611a8557829003601f168201915b50505091909252505050600890910154608081811b91600160801b9004901b83565b611acc611fc8565b600180546001600160a01b0383166001600160a01b03199091168117909155611afd6000546001600160a01b031690565b6001600160a01b03167f38d16b8cac22d99fc7c124b9cd0de2d3fa1faef420bfe791d8c362d765e2270060405160405180910390a350565b6002805403611b5757604051633ee5aeb560e01b815260040160405180910390fd5b60028055565b604080516001600160a01b0385811660248301528481166044830152606480830185905283518084039091018152608490920183526020820180516001600160e01b03166323b872dd60e01b1790529151600092839290881691611bc19190612ef1565b6000604051808303816000865af19150503d8060008114611bfe576040519150601f19603f3d011682016040523d82523d6000602084013e611c03565b606091505b5091509150818015611c2d575080511580611c2d575080806020019051810190611c2d9190612b7d565b611c5f5760405162461bcd60e51b815260206004820152600360248201526229aa2360e91b60448201526064016103f8565b505050505050565b604080516001600160a01b038481166024830152604480830185905283518084039091018152606490920183526020820180516001600160e01b031663095ea7b360e01b1790529151600092839290871691611cc39190612ef1565b6000604051808303816000865af19150503d8060008114611d00576040519150601f19603f3d011682016040523d82523d6000602084013e611d05565b606091505b5091509150818015611d2f575080511580611d2f575080806020019051810190611d2f9190612b7d565b611d605760405162461bcd60e51b8152602060048201526002602482015261534160f01b60448201526064016103f8565b5050505050565b604080516001600160a01b038481166024830152604480830185905283518084039091018152606490920183526020820180516001600160e01b031663a9059cbb60e01b1790529151600092839290871691611dc39190612ef1565b6000604051808303816000865af19150503d8060008114611e00576040519150601f19603f3d011682016040523d82523d6000602084013e611e05565b606091505b5091509150818015611e2f575080511580611e2f575080806020019051810190611e2f9190612b7d565b611d605760405162461bcd60e51b815260206004820152600260248201526114d560f21b60448201526064016103f8565b67010a741a46278000811115611ead5760405162461bcd60e51b81526020600482015260126024820152710cec2e68ccaca40d2e640e8dede40d0d2ced60731b60448201526064016103f8565b6001600160a01b038216600090815260076020526040902054811115611f155760405162461bcd60e51b815260206004820181905260248201527f646f6573206e6f74206861766520656e6f7567682066656520746f2074616b6560448201526064016103f8565b6001600160a01b03821660009081526007602052604081208054839290611f3d908490612a6f565b9091555081905060076000611f5a6000546001600160a01b031690565b6001600160a01b03166001600160a01b031681526020019081526020016000206000828254611f899190612ede565b909155505060405181906001600160a01b038416907f1b02d16d3c4c6fce038de5403c8352eb1eb62bc6915b6848683de52a24a723f890600090a35050565b6000546001600160a01b031633146115565760405163118cdaa760e01b81523360048201526024016103f8565b600180546001600160a01b03191690556104e781612344565b805160a0015160009042106120555760405162461bcd60e51b815260206004820152600d60248201526c1bdc99195c88195e1c1a5c9959609a1b60448201526064016103f8565b8151602001516001600160a01b03166120bb5760405162461bcd60e51b815260206004820152602260248201527f726563697069656e74206d757374206265206e6f6e2d7a65726f206164647265604482015261737360f01b60648201526084016103f8565b81516080015160000361211c5760405162461bcd60e51b815260206004820152602360248201527f65786368616e676552617465206d757374206265206e6f6e2d7a65726f2076616044820152626c756560e81b60648201526084016103f8565b8151516001600160a01b031633146121765760405162461bcd60e51b815260206004820152601c60248201527f6f6e6c7920737761707065722063616e2073746f7265206f726465720000000060448201526064016103f8565b815160e0015115612270578151610100015161219190612394565b6121e95760405162461bcd60e51b815260206004820152602360248201527f656e636f64656450617468206d757374206265206e6f6e2d7a65726f206c656e6044820152620cee8d60eb1b60648201526084016103f8565b60006121fd836000015161010001516123ce565b505090508260000151604001516001600160a01b0316816001600160a01b03161461226a5760405162461bcd60e51b815260206004820152601a60248201527f666972737420706f6f6c206d75737420626520746f6b656e496e00000000000060448201526064016103f8565b5061233c565b8151610100015151156122c55760405162461bcd60e51b815260206004820152601f60248201527f656e636f64656450617468206d757374206265207a65726f206c656e6774680060448201526064016103f8565b815160608101516040909101516001600160a01b0391821691160361233c5760405162461bcd60e51b815260206004820152602760248201527f746f6b656e496e20616e6420746f6b656e4f75742063616e6e6f74206265207460448201526668652073616d6560c81b60648201526084016103f8565b506001919050565b600080546001600160a01b038381166001600160a01b0319831681178455604051919092169283917f8be0079c531659141344cd1fd0a4f28419497f9722a3daafe3b4186f6b6457e09190a35050565b60006123a260036014612ede565b60146123af600382612ede565b6123b99190612ede565b6123c39190612ede565b825110159050919050565b600080806123dc848261240a565b92506123e9846014612475565b90506124016123fa60036014612ede565b859061240a565b91509193909250565b6000612417826014612ede565b8351101561245f5760405162461bcd60e51b8152602060048201526015602482015274746f416464726573735f6f75744f66426f756e647360581b60448201526064016103f8565b5081810160200151600160601b90045b92915050565b600081612483816003612ede565b10156124c55760405162461bcd60e51b8152602060048201526011602482015270746f55696e7432345f6f766572666c6f7760781b60448201526064016103f8565b6124d0826003612ede565b835110156125175760405162461bcd60e51b8152602060048201526014602482015273746f55696e7432345f6f75744f66426f756e647360601b60448201526064016103f8565b50016003015190565b60405180608001604052806004906020820280368337509192915050565b50805461254a90612a98565b6000825580601f1061255a575050565b601f0160209004906000526020600020908101906104e791905b808211156125885760008155600101612574565b5090565b60006020828403121561259e57600080fd5b5035919050565b806040810183101561246f57600080fd5b80356001600160a01b03811681146125cd57600080fd5b919050565b60008060008060008060008060006101c08a8c0312156125f157600080fd5b6125fb8b8b6125a5565b985060c08a018b81111561260e57600080fd5b60408b01985061261e8c826125a5565b97505061262e6101008b016125b6565b95506101208a013594506101408a013593506101608a013592506101808a013591506101a08a01356002811061266357600080fd5b809150509295985092959850929598565b60006020828403121561268657600080fd5b61268f826125b6565b9392505050565b634e487b7160e01b600052604160045260246000fd5b6040516060810167ffffffffffffffff811182821017156126cf576126cf612696565b60405290565b604051610120810167ffffffffffffffff811182821017156126cf576126cf612696565b80151581146104e757600080fd5b80356125cd816126f9565b600082601f83011261272357600080fd5b813567ffffffffffffffff81111561273d5761273d612696565b604051601f8201601f19908116603f0116810167ffffffffffffffff8111828210171561276c5761276c612696565b60405281815283820160200185101561278457600080fd5b816020850160208301376000918101602001919091529392505050565b80356001600160801b0319811681146125cd57600080fd5b6000602082840312156127cb57600080fd5b813567ffffffffffffffff8111156127e257600080fd5b8201606081850312156127f457600080fd5b6127fc6126ac565b813567ffffffffffffffff81111561281357600080fd5b8201610120818703121561282657600080fd5b61282e6126d5565b612837826125b6565b8152612845602083016125b6565b6020820152612856604083016125b6565b6040820152612867606083016125b6565b60608201526080828101359082015260a0808301359082015261288c60c08301612707565b60c082015261289d60e08301612707565b60e082015261010082013567ffffffffffffffff8111156128bd57600080fd5b6128c988828501612712565b610100830152508252506128df602083016127a1565b60208201526128f0604083016127a1565b6040820152949350505050565b6000806040838503121561291057600080fd5b612919836125b6565b946020939093013593505050565b60005b8381101561294257818101518382015260200161292a565b50506000910152565b60008151808452612963816020860160208601612927565b601f01601f19169290920160200192915050565b606081526129916060820185516001600160a01b03169052565b600060208501516129ad60808401826001600160a01b03169052565b5060408501516001600160a01b03811660a08401525060608501516001600160a01b03811660c084015250608085015160e083015260a085015161010083015260c08501518015156101208401525060e085015180151561014084015250610100850151610120610160840152612a2861018084018261294b565b915050612a4160208301856001600160801b0319169052565b6001600160801b031983166040830152949350505050565b634e487b7160e01b600052601160045260246000fd5b8181038181111561246f5761246f612a59565b634e487b7160e01b600052603260045260246000fd5b600181811c90821680612aac57607f821691505b602082108103612acc57634e487b7160e01b600052602260045260246000fd5b50919050565b808202811582820484141761246f5761246f612a59565b600082612b0657634e487b7160e01b600052601260045260246000fd5b500490565b61018081016040868337604082018560005b6002811015612b3e5760408284376040928301929190910190600101612b1d565b50505060408460c084013761010082018360005b6004811015612b71578151835260209283019290910190600101612b52565b50505095945050505050565b600060208284031215612b8f57600080fd5b815161268f816126f9565b634e487b7160e01b600052602160045260246000fd5b6000815160a08452612bc560a085018261294b565b6020848101516001600160a01b031690860152604080850151908601526060808501519086015260809384015193909401929092525090919050565b60208152600061268f6020830184612bb0565b600060208284031215612c2657600080fd5b5051919050565b80516001600160a01b03908116835260208083015182169084015260408083015162ffffff169084015260608083015191821690840152506080810151608083015260a081015160a083015260c081015160c083015260e0810151612c9d60e08401826001600160a01b03169052565b505050565b610100810161246f8284612c2d565b6001600160a01b03968716815294861660208601529290941660408401526060830152608082019290925290151560a082015260c00190565b601f821115612c9d57806000526020600020601f840160051c81016020851015612d115750805b601f840160051c820191505b81811015611d605760008155600101612d1d565b818103612d3c575050565b612d468254612a98565b67ffffffffffffffff811115612d5e57612d5e612696565b612d7281612d6c8454612a98565b84612cea565b6000601f821160018114612da95760008315612d8e5750848201545b600184901b600019600386901b1c198216175b855550611d60565b600085815260209020601f19841690600086815260209020845b83811015612de35782860154825560019586019590910190602001612dc3565b5085831015612e015781850154600019600388901b60f8161c191681555b5050505050600190811b01905550565b815167ffffffffffffffff811115612e2b57612e2b612696565b612e3981612d6c8454612a98565b6020601f821160018114612e6b5760008315612d8e575081850151600184901b600019600386901b1c19821617612da1565b600084815260208120601f198516915b82811015612e9b5787850151825560209485019460019092019101612e7b565b5084821015612eb95786840151600019600387901b60f8161c191681555b50505050600190811b01905550565b634e487b7160e01b600052603160045260246000fd5b8082018082111561246f5761246f612a59565b60008251612f03818460208701612927565b919091019291505056fea26469706673582212202e0cf5391a38f9df28ca358cf60cdf7346950e7f80b0d34b53f8f1990621b72064736f6c634300081c0033","linkReferences":{}},"methodIdentifiers":{"acceptOwnership()":"79ba5097","addPendingOrder(((address,address,address,address,uint256,uint256,bool,bool,bytes),bytes16,bytes16))":"c680993b","agent()":"f5ff5c76","cancelOrder(uint256)":"514fcac7","depositForGasFee(address)":"6b5da867","gasfee(address)":"8abfcba3","orderbook(address,uint256)":"c7d0862d","owner()":"8da5cb5b","pendingOwner()":"e30c3978","renounceOwnership()":"715018a6","router()":"f887ea40","setAgent(address)":"bcf685ed","setRouter(address)":"c0d78655","setVerifier(address)":"5437988d","swapForward(uint256[2],uint256[2][2],uint256[2],address,uint256,uint256,uint256,uint256,uint8)":"458f9a86","transferOwnership(address)":"f2fde38b","verifier()":"2b7ac3f3","withdrawGasFee(uint256)":"19c0f1ce","withdrawTakenFee()":"56ab9955"},"id":34}