{"abi":[{"type":"constructor","inputs":[{"name":"_agent","type":"address","internalType":"address"},{"name":"_router","type":"address","internalType":"address payable"},{"name":"_verifier","type":"address","internalType":"address"},{"name":"_owner","type":"address","internalType":"address"}],"stateMutability":"nonpayable"},{"type":"function","name":"acceptOwnership","inputs":[],"outputs":[],"stateMutability":"nonpayable"},{"type":"function","name":"addPendingOrder","inputs":[{"name":"_order","type":"tuple","internalType":"struct ZDPc.Order","components":[{"name":"t","type":"tuple","internalType":"struct ZDPc.OrderDetails","components":[{"name":"swapper","type":"address","internalType":"address"},{"name":"recipient","type":"address","internalType":"address"},{"name":"tokenIn","type":"address","internalType":"address"},{"name":"tokenOut","type":"address","internalType":"address"},{"name":"exchangeRate","type":"uint256","internalType":"uint256"},{"name":"deadline","type":"uint256","internalType":"uint256"},{"name":"OrderIsExecuted","type":"bool","internalType":"bool"},{"name":"isMultiPath","type":"bool","internalType":"bool"},{"name":"encodedPath","type":"bytes","internalType":"bytes"}]},{"name":"HOsF","type":"bytes16","internalType":"bytes16"},{"name":"HOsE","type":"bytes16","internalType":"bytes16"}]}],"outputs":[],"stateMutability":"nonpayable"},{"type":"function","name":"agent","inputs":[],"outputs":[{"name":"","type":"address","internalType":"address"}],"stateMutability":"view"},{"type":"function","name":"cancelOrder","inputs":[{"name":"index","type":"uint256","internalType":"uint256"}],"outputs":[],"stateMutability":"nonpayable"},{"type":"function","name":"depositForGasFee","inputs":[{"name":"swapper","type":"address","internalType":"address"}],"outputs":[],"stateMutability":"payable"},{"type":"function","name":"gasfee","inputs":[{"name":"","type":"address","internalType":"address"}],"outputs":[{"name":"","type":"uint256","internalType":"uint256"}],"stateMutability":"view"},{"type":"function","name":"getOrder","inputs":[{"name":"swapper","type":"address","internalType":"address"},{"name":"index","type":"uint256","internalType":"uint256"}],"outputs":[{"name":"","type":"tuple","internalType":"struct ZDPc.Order","components":[{"name":"t","type":"tuple","internalType":"struct ZDPc.OrderDetails","components":[{"name":"swapper","type":"address","internalType":"address"},{"name":"recipient","type":"address","internalType":"address"},{"name":"tokenIn","type":"address","internalType":"address"},{"name":"tokenOut","type":"address","internalType":"address"},{"name":"exchangeRate","type":"uint256","internalType":"uint256"},{"name":"deadline","type":"uint256","internalType":"uint256"},{"name":"OrderIsExecuted","type":"bool","internalType":"bool"},{"name":"isMultiPath","type":"bool","internalType":"bool"},{"name":"encodedPath","type":"bytes","internalType":"bytes"}]},{"name":"HOsF","type":"bytes16","internalType":"bytes16"},{"name":"HOsE","type":"bytes16","internalType":"bytes16"}]}],"stateMutability":"view"},{"type":"function","name":"getOrders","inputs":[{"name":"swapper","type":"address","internalType":"address"}],"outputs":[{"name":"","type":"tuple[]","internalType":"struct ZDPc.Order[]","components":[{"name":"t","type":"tuple","internalType":"struct ZDPc.OrderDetails","components":[{"name":"swapper","type":"address","internalType":"address"},{"name":"recipient","type":"address","internalType":"address"},{"name":"tokenIn","type":"address","internalType":"address"},{"name":"tokenOut","type":"address","internalType":"address"},{"name":"exchangeRate","type":"uint256","internalType":"uint256"},{"name":"deadline","type":"uint256","internalType":"uint256"},{"name":"OrderIsExecuted","type":"bool","internalType":"bool"},{"name":"isMultiPath","type":"bool","internalType":"bool"},{"name":"encodedPath","type":"bytes","internalType":"bytes"}]},{"name":"HOsF","type":"bytes16","internalType":"bytes16"},{"name":"HOsE","type":"bytes16","internalType":"bytes16"}]}],"stateMutability":"view"},{"type":"function","name":"orderbook","inputs":[{"name":"","type":"address","internalType":"address"},{"name":"","type":"uint256","internalType":"uint256"}],"outputs":[{"name":"t","type":"tuple","internalType":"struct ZDPc.OrderDetails","components":[{"name":"swapper","type":"address","internalType":"address"},{"name":"recipient","type":"address","internalType":"address"},{"name":"tokenIn","type":"address","internalType":"address"},{"name":"tokenOut","type":"address","internalType":"address"},{"name":"exchangeRate","type":"uint256","internalType":"uint256"},{"name":"deadline","type":"uint256","internalType":"uint256"},{"name":"OrderIsExecuted","type":"bool","internalType":"bool"},{"name":"isMultiPath","type":"bool","internalType":"bool"},{"name":"encodedPath","type":"bytes","internalType":"bytes"}]},{"name":"HOsF","type":"bytes16","internalType":"bytes16"},{"name":"HOsE","type":"bytes16","internalType":"bytes16"}],"stateMutability":"view"},{"type":"function","name":"owner","inputs":[],"outputs":[{"name":"","type":"address","internalType":"address"}],"stateMutability":"view"},{"type":"function","name":"pendingOwner","inputs":[],"outputs":[{"name":"","type":"address","internalType":"address"}],"stateMutability":"view"},{"type":"function","name":"renounceOwnership","inputs":[],"outputs":[],"stateMutability":"nonpayable"},{"type":"function","name":"router","inputs":[],"outputs":[{"name":"","type":"address","internalType":"contract ISwapRouter"}],"stateMutability":"view"},{"type":"function","name":"setAgent","inputs":[{"name":"_agent","type":"address","internalType":"address"}],"outputs":[],"stateMutability":"nonpayable"},{"type":"function","name":"setRouter","inputs":[{"name":"_router","type":"address","internalType":"address"}],"outputs":[],"stateMutability":"nonpayable"},{"type":"function","name":"setVerifier","inputs":[{"name":"_verifier","type":"address","internalType":"address"}],"outputs":[],"stateMutability":"nonpayable"},{"type":"function","name":"swapForward","inputs":[{"name":"_proofA","type":"uint256[2]","internalType":"uint256[2]"},{"name":"_proofB","type":"uint256[2][2]","internalType":"uint256[2][2]"},{"name":"_proofC","type":"uint256[2]","internalType":"uint256[2]"},{"name":"swapper","type":"address","internalType":"address"},{"name":"index","type":"uint256","internalType":"uint256"},{"name":"a0e","type":"uint256","internalType":"uint256"},{"name":"a1m","type":"uint256","internalType":"uint256"},{"name":"_gasFee","type":"uint256","internalType":"uint256"},{"name":"_type","type":"uint8","internalType":"enum ZDPc.OrderType"}],"outputs":[],"stateMutability":"nonpayable"},{"type":"function","name":"transferOwnership","inputs":[{"name":"newOwner","type":"address","internalType":"address"}],"outputs":[],"stateMutability":"nonpayable"},{"type":"function","name":"verifier","inputs":[],"outputs":[{"name":"","type":"address","internalType":"contract Groth16Verifier"}],"stateMutability":"view"},{"type":"function","name":"withdrawGasFee","inputs":[{"name":"amount","type":"uint256","internalType":"uint256"}],"outputs":[],"stateMutability":"nonpayable"},{"type":"function","name":"withdrawTakenFee","inputs":[],"outputs":[],"stateMutability":"nonpayable"},{"type":"event","name":"AgentChanged","inputs":[{"name":"oldAgent","type":"address","indexed":true,"internalType":"address"},{"name":"newAgent","type":"address","indexed":true,"internalType":"address"}],"anonymous":false},{"type":"event","name":"FeeDeposit","inputs":[{"name":"swapper","type":"address","indexed":true,"internalType":"address"},{"name":"fee","type":"uint256","indexed":true,"internalType":"uint256"}],"anonymous":false},{"type":"event","name":"FeeTaken","inputs":[{"name":"swapper","type":"address","indexed":true,"internalType":"address"},{"name":"fee","type":"uint256","indexed":true,"internalType":"uint256"}],"anonymous":false},{"type":"event","name":"FeeWithdrawn","inputs":[{"name":"swapper","type":"address","indexed":true,"internalType":"address"},{"name":"fee","type":"uint256","indexed":true,"internalType":"uint256"}],"anonymous":false},{"type":"event","name":"HOS","inputs":[{"name":"HOsF","type":"bytes16","indexed":true,"internalType":"bytes16"},{"name":"HOsE","type":"bytes16","indexed":true,"internalType":"bytes16"}],"anonymous":false},{"type":"event","name":"OrderCancelled","inputs":[{"name":"swapper","type":"address","indexed":false,"internalType":"address"},{"name":"index","type":"uint256","indexed":true,"internalType":"uint256"},{"name":"tokenIn","type":"address","indexed":false,"internalType":"address"},{"name":"tokenOut","type":"address","indexed":false,"internalType":"address"},{"name":"exchangeRate","type":"uint256","indexed":false,"internalType":"uint256"},{"name":"deadline","type":"uint256","indexed":false,"internalType":"uint256"},{"name":"OrderIsExecuted","type":"bool","indexed":false,"internalType":"bool"}],"anonymous":false},{"type":"event","name":"OrderExecuted","inputs":[{"name":"swapper","type":"address","indexed":false,"internalType":"address"},{"name":"index","type":"uint256","indexed":true,"internalType":"uint256"},{"name":"tokenIn","type":"address","indexed":false,"internalType":"address"},{"name":"tokenOut","type":"address","indexed":false,"internalType":"address"},{"name":"exchangeRate","type":"uint256","indexed":false,"internalType":"uint256"},{"name":"deadline","type":"uint256","indexed":false,"internalType":"uint256"},{"name":"OrderIsExecuted","type":"bool","indexed":false,"internalType":"bool"}],"anonymous":false},{"type":"event","name":"OrderStored","inputs":[{"name":"swapper","type":"address","indexed":true,"internalType":"address"},{"name":"index","type":"uint256","indexed":true,"internalType":"uint256"},{"name":"tokenIn","type":"address","indexed":false,"internalType":"address"},{"name":"tokenOut","type":"address","indexed":false,"internalType":"address"},{"name":"exchangeRate","type":"uint256","indexed":false,"internalType":"uint256"},{"name":"deadline","type":"uint256","indexed":false,"internalType":"uint256"},{"name":"OrderIsExecuted","type":"bool","indexed":false,"internalType":"bool"},{"name":"isMultiPath","type":"bool","indexed":false,"internalType":"bool"},{"name":"encodedPath","type":"bytes","indexed":false,"internalType":"bytes"}],"anonymous":false},{"type":"event","name":"OwnershipTransferStarted","inputs":[{"name":"previousOwner","type":"address","indexed":true,"internalType":"address"},{"name":"newOwner","type":"address","indexed":true,"internalType":"address"}],"anonymous":false},{"type":"event","name":"OwnershipTransferred","inputs":[{"name":"previousOwner","type":"address","indexed":true,"internalType":"address"},{"name":"newOwner","type":"address","indexed":true,"internalType":"address"}],"anonymous":false},{"type":"event","name":"RouterChanged","inputs":[{"name":"oldRouter","type":"address","indexed":true,"internalType":"address"},{"name":"newRouter","type":"address","indexed":true,"internalType":"address"}],"anonymous":false},{"type":"event","name":"TakenFeeWithdrawn","inputs":[{"name":"owner","type":"address","indexed":true,"internalType":"address"},{"name":"fee","type":"uint256","indexed":true,"internalType":"uint256"}],"anonymous":false},{"type":"event","name":"VerifierChanged","inputs":[{"name":"oldVerifier","type":"address","indexed":true,"internalType":"address"},{"name":"newVerifier","type":"address","indexed":true,"internalType":"address"}],"anonymous":false},{"type":"error","name":"OwnableInvalidOwner","inputs":[{"name":"owner","type":"address","internalType":"address"}]},{"type":"error","name":"OwnableUnauthorizedAccount","inputs":[{"name":"account","type":"address","internalType":"address"}]},{"type":"error","name":"ReentrancyGuardReentrantCall","inputs":[]}],"bytecode":{"object":"0x608060405234801561001057600080fd5b5060405161384938038061384983398101604081905261002f9161016a565b806001600160a01b03811661005e57604051631e4fbdf760e01b81526000600482015260240160405180910390fd5b610067816100e9565b5060016002556001600160a01b03841661008057600080fd5b6001600160a01b03831661009357600080fd5b6001600160a01b0382166100a657600080fd5b50600380546001600160a01b039485166001600160a01b0319918216179091556004805493851693821693909317909255600580549190931691161790556101c9565b600180546001600160a01b031916905561010281610105565b50565b600080546001600160a01b038381166001600160a01b0319831681178455604051919092169283917f8be0079c531659141344cd1fd0a4f28419497f9722a3daafe3b4186f6b6457e09190a35050565b6001600160a01b038116811461010257600080fd5b6000806000806080858703121561018057600080fd5b845161018b81610155565b602086015190945061019c81610155565b60408601519093506101ad81610155565b60608601519092506101be81610155565b939692955090935050565b613671806101d86000396000f3fe60806040526004361061012a5760003560e01c80638abfcba3116100ab578063c7d0862d1161006f578063c7d0862d1461032a578063e30c397814610359578063edb2584114610377578063f2fde38b146103a4578063f5ff5c76146103c4578063f887ea40146103e457600080fd5b80638abfcba3146102715780638da5cb5b146102ac578063bcf685ed146102ca578063c0d78655146102ea578063c680993b1461030a57600080fd5b80635437988d116100f25780635437988d146101ff57806356ab99551461021f5780636b5da86714610234578063715018a61461024757806379ba50971461025c57600080fd5b8063093376fe1461012f57806319c0f1ce146101655780632b7ac3f314610187578063458f9a86146101bf578063514fcac7146101df575b600080fd5b34801561013b57600080fd5b5061014f61014a366004612bab565b610404565b60405161015c9190612d27565b60405180910390f35b34801561017157600080fd5b50610185610180366004612d8c565b6105bf565b005b34801561019357600080fd5b506005546101a7906001600160a01b031681565b6040516001600160a01b03909116815260200161015c565b3480156101cb57600080fd5b506101856101da366004612db6565b610719565b3480156101eb57600080fd5b506101856101fa366004612d8c565b610f26565b34801561020b57600080fd5b5061018561021a366004612bab565b61154b565b34801561022b57600080fd5b506101856115a5565b610185610242366004612bab565b611728565b34801561025357600080fd5b50610185611834565b34801561026857600080fd5b50610185611846565b34801561027d57600080fd5b5061029e61028c366004612bab565b60076020526000908152604090205481565b60405190815260200161015c565b3480156102b857600080fd5b506000546001600160a01b03166101a7565b3480156102d657600080fd5b506101856102e5366004612bab565b611887565b3480156102f657600080fd5b50610185610305366004612bab565b6118e1565b34801561031657600080fd5b50610185610325366004612f7b565b61193b565b34801561033657600080fd5b5061034a6103453660046130bf565b611cb8565b60405161015c939291906130e9565b34801561036557600080fd5b506001546001600160a01b03166101a7565b34801561038357600080fd5b506103976103923660046130bf565b611e15565b60405161015c919061311d565b3480156103b057600080fd5b506101856103bf366004612bab565b611faa565b3480156103d057600080fd5b506003546101a7906001600160a01b031681565b3480156103f057600080fd5b506004546101a7906001600160a01b031681565b6001600160a01b0381166000908152600660209081526040808320805482518185028101850190935280835260609492939192909184015b828210156105b4576000848152602090206040805161018081019091526009840290910180546001600160a01b03908116606084019081526001830154821660808501526002830154821660a0850152600383015490911660c0840152600482015460e0840152600582015461010080850191909152600683015460ff80821615156101208701529190041615156101408401526007820180548492918491610160850191906104eb90613130565b80601f016020809104026020016040519081016040528092919081815260200182805461051790613130565b80156105645780601f1061053957610100808354040283529160200191610564565b820191906000526020600020905b81548152906001019060200180831161054757829003601f168201915b505050919092525050508152600891909101546001600160801b0319608082811b8216602080860191909152600160801b909304901b16604090920191909152908252600192909201910161043c565b505050509050919050565b6105c761201b565b600081116105d457600080fd5b336000908152600760205260409020548111156106305760405162461bcd60e51b81526020600482015260156024820152744e6f20656e6f7567682066656520746f2074616b6560581b60448201526064015b60405180910390fd5b336000908152600760205260408120805483929061064f908490613180565b9091555050604051600090339083908381818185875af1925050503d8060008114610696576040519150601f19603f3d011682016040523d82523d6000602084013e61069b565b606091505b50509050806106de5760405162461bcd60e51b815260206004820152600f60248201526e1d1c985b9cd9995c8819985a5b1959608a1b6044820152606401610627565b604051829033907f78473f3f373f7673597f4f0fa5873cb4d375fea6d4339ad6b56dbd411513cb3f90600090a3506107166001600255565b50565b6003546001600160a01b0316331461077d5760405162461bcd60e51b815260206004820152602160248201527f6f6e6c79206167656e742063616e2063616c6c20746869732066756e6374696f6044820152603760f91b6064820152608401610627565b6001600160a01b03861660009081526006602052604081208054879081106107a7576107a7613193565b6000918252602090912060408051610180810190915260099092020180546001600160a01b03908116606084019081526001830154821660808501526002830154821660a0850152600383015490911660c0840152600482015460e0840152600582015461010080850191909152600683015460ff808216151561012087015291900416151561014084015260078201805484929184916101608501919061084e90613130565b80601f016020809104026020016040519081016040528092919081815260200182805461087a90613130565b80156108c75780601f1061089c576101008083540402835291602001916108c7565b820191906000526020600020905b8154815290600101906020018083116108aa57829003601f168201915b505050919092525050508152600891909101546001600160801b0319608082811b8216602080860191909152600160801b909304901b166040928301528251908101519181015160609091015192935090918661092c89670de0b6b3a76400006131a9565b61093691906131c0565b845160800151111561097d5760405162461bcd60e51b815260206004820152601060248201526f6261642065786368616e67655261746560801b6044820152606401610627565b835160c00151156109c35760405162461bcd60e51b815260206004820152601060248201526f185b1c9958591e48195e1958dd5d195960821b6044820152606401610627565b835160a00151421115610a085760405162461bcd60e51b815260206004820152600d60248201526c1bdc99195c88195e1c1a5c9959609a1b6044820152606401610627565b610a10612abc565b602085015160801c8160006020020152604085015160801c816001602002015288816002602002015287816003602002018181525050600560009054906101000a90046001600160a01b03166001600160a01b0316635fe8c13b8f8f8f856040518563ffffffff1660e01b8152600401610a8d94939291906131e2565b602060405180830381865afa158015610aaa573d6000803e3d6000fd5b505050506040513d601f19601f82011682018060405250810190610ace9190613254565b610b0f5760405162461bcd60e51b8152602060048201526012602482015271141c9bdbd9881a5cc81b9bdd081d985b1a5960721b6044820152606401610627565b610b1b838c308c612043565b600454610b339084906001600160a01b03168b61214d565b6000866001811115610b4757610b47613271565b03610c7c57845160e0015115610c05576040805160a080820183528751610100015182526001600160a01b03808816602084015288519091015182840152606082018c9052608082018b905260048054935163c04b8d5960e01b815292939091169163c04b8d5991610bbb918591016132d8565b6020604051808303816000875af1158015610bda573d6000803e3d6000fd5b505050506040513d601f19601f82011682018060405250810190610bfe91906132eb565b5050610e47565b60408051610100810182526001600160a01b0380861682528481166020830152610bb8828401528681166060830152875160a090810151608084015282018c905260c082018b9052600060e083015260048054935163414bf38960e01b815292939091169163414bf38991610bbb91859101613379565b6001866001811115610c9057610c90613271565b03610e4757845160e0015160009015610d52576040805160a080820183528851610100015182526001600160a01b03808916602084015289519091015182840152606082018c9052608082018d9052600480549351631e51809360e31b815292939091169163f28c049891610d07918591016132d8565b6020604051808303816000875af1158015610d26573d6000803e3d6000fd5b505050506040513d601f19601f82011682018060405250810190610d4a91906132eb565b915050610e10565b60408051610100810182526001600160a01b0380871682528581166020830152610bb8828401528781166060830152885160a090810151608084015282018c905260c082018d9052600060e0830152600480549351631b67c43360e31b815292939091169163db3e219891610dc991859101613379565b6020604051808303816000875af1158015610de8573d6000803e3d6000fd5b505050506040513d601f19601f82011682018060405250810190610e0c91906132eb565b9150505b89811015610e4557600454610e319085906001600160a01b0316600061214d565b610e45848d610e40848e613180565b61224d565b505b6001600160a01b038b1660009081526006602052604090208054600191908c908110610e7557610e75613193565b60009182526020909120600990910201600601805460ff1916911515919091179055845151610ea49088612346565b897ff235922b876688d636d7f228c123359235291c29677d901bee94c77f061f42698660000151600001518760000151604001518860000151606001518960000151608001518a6000015160a001518b6000015160c00151604051610f0e96959493929190613388565b60405180910390a25050505050505050505050505050565b336000908152600660205260409020805482908110610f4757610f47613193565b600091825260209091206006600990920201015460ff1615610f9e5760405162461bcd60e51b815260206004820152601060248201526f185b1c9958591e48195e1958dd5d195960821b6044820152606401610627565b336000908152600660205260408120805483908110610fbf57610fbf613193565b60009182526020909120600160099092020101546001600160a01b0316036110295760405162461bcd60e51b815260206004820152601860248201527f726563697069656e7420646f6573206e6f7420657869737400000000000000006044820152606401610627565b611031612ada565b33600090815260066020526040902080549061104e600183613180565b8154811061105e5761105e613193565b6000918252602090912060408051610180810190915260099092020180546001600160a01b03908116606084019081526001830154821660808501526002830154821660a0850152600383015490911660c0840152600482015460e0840152600582015461010080850191909152600683015460ff808216151561012087015291900416151561014084015260078201805484929184916101608501919061110590613130565b80601f016020809104026020016040519081016040528092919081815260200182805461113190613130565b801561117e5780601f106111535761010080835404028352916020019161117e565b820191906000526020600020905b81548152906001019060200180831161116157829003601f168201915b505050919092525050508152600891909101546001600160801b0319608082811b8216602080860191909152600160801b909304901b16604092830152336000908152600690915220805491935090849081106111dd576111dd613193565b6000918252602080832033845260069091526040909220600990910290910190611208600184613180565b8154811061121857611218613193565b60009182526020909120825460099092020180546001600160a01b03199081166001600160a01b0393841617825560018085015490830180548316918516919091179055600280850154908301805483169185169190911790556003808501549083018054909216931692909217909155600480830154908201556005808301549082015560068083018054918301805460ff938416151560ff19821681178355925461010090819004909416151590930261ff001990921661ffff199093169290921717905581816007808201906112f390840182613408565b505050600891820180549190920180546001600160801b0319166001600160801b0392831690811782559254600160801b90819004909216909102909117905533600090815260066020526040902080548391908590811061135757611357613193565b60009182526020918290208351805160099390930290910180546001600160a01b03199081166001600160a01b039485161782559382015160018201805486169185169190911790556040820151600282018054861691851691909117905560608201516003820180549095169316929092179092556080820151600482015560a0820151600582015560c082015160068201805460e085015161ffff1990911692151561ff0019169290921761010092151583021790558201519091908290600782019061142690826134e8565b505050602082810151604093840151608090811c600160801b0291901c176008909201919091553360009081526006909152208054806114685761146861359f565b60008281526020812060096000199093019283020180546001600160a01b0319908116825560018201805482169055600282018054821690556003820180549091169055600481018290556005810182905560068101805461ffff191690559081816114d76007830182612b41565b505060006008929092019190915550905581516040808201516060830151608084015160a085015160c090950151935188957f33908de3197827f2ef40153d9c3d3ea8c493ef3137279ee71e8acbd4998231049561153e9533959094909390929190613388565b60405180910390a2505050565b6115536124ae565b600580546001600160a01b038381166001600160a01b0319831681179093556040519116919082907f0ddda8be1021ab00f63727c5c5504ad96b163269770a3fe8ac3dd0bcb40208df90600090a35050565b6115ad6124ae565b6115b561201b565b6000600760006115cd6000546001600160a01b031690565b6001600160a01b03166001600160a01b031681526020019081526020016000205490506000600760006116086000546001600160a01b031690565b6001600160a01b03166001600160a01b031681526020019081526020016000208190555060006116406000546001600160a01b031690565b6001600160a01b03168260405160006040518083038185875af1925050503d806000811461168a576040519150601f19603f3d011682016040523d82523d6000602084013e61168f565b606091505b50509050806116d25760405162461bcd60e51b815260206004820152600f60248201526e1d1c985b9cd9995c8819985a5b1959608a1b6044820152606401610627565b816116e56000546001600160a01b031690565b6001600160a01b03167f6b18e5ec1eb85e65aec1256ffdeead20d0d855853dfa10c96d4144d9310cf5ec60405160405180910390a350506117266001600255565b565b600034116117785760405162461bcd60e51b815260206004820152601e60248201527f6465706f736974206d757374206265206e6f6e2d7a65726f2076616c756500006044820152606401610627565b6001600160a01b0381166117ce5760405162461bcd60e51b815260206004820181905260248201527f73776170706572206d757374206265206e6f6e2d7a65726f20616464726573736044820152606401610627565b6001600160a01b038116600090815260076020526040812080543492906117f69084906135b5565b909155505060405134906001600160a01b038316907fa8491ef03ac2868e696ed75957d04a1175eb88946dbc13ee05e75040c8db91d990600090a350565b61183c6124ae565b61172660006124db565b60015433906001600160a01b0316811461187e5760405163118cdaa760e01b81526001600160a01b0382166004820152602401610627565b610716816124db565b61188f6124ae565b600380546001600160a01b038381166001600160a01b0319831681179093556040519116919082907fb21f1bf0d206b43eb02be4f423c2788a95affbda226125eaecabe3def8ba5c4290600090a35050565b6118e96124ae565b600480546001600160a01b038381166001600160a01b0319831681179093556040519116919082907fc736654a613824c69968e0ec25ac1a428ccd49e15c28e97b5dfd2c6059757e2a90600090a35050565b611944816124f4565b506000600660008360000151600001516001600160a01b03166001600160a01b03168152602001908152602001600020805490509050600060405180606001604052806040518061012001604052808660000151600001516001600160a01b031681526020018660000151602001516001600160a01b031681526020018660000151604001516001600160a01b031681526020018660000151606001516001600160a01b031681526020018660000151608001518152602001866000015160a001518152602001600015158152602001866000015160e001511515815260200186600001516101000151815250815260200184602001516001600160801b031916815260200184604001516001600160801b0319168152509050600660008460000151600001516001600160a01b03166001600160a01b0316815260200190815260200160002081908060018154018082558091505060019003906000526020600020906009020160009091909190915060008201518160000160008201518160000160006101000a8154816001600160a01b0302191690836001600160a01b0316021790555060208201518160010160006101000a8154816001600160a01b0302191690836001600160a01b0316021790555060408201518160020160006101000a8154816001600160a01b0302191690836001600160a01b0316021790555060608201518160030160006101000a8154816001600160a01b0302191690836001600160a01b031602179055506080820151816004015560a0820151816005015560c08201518160060160006101000a81548160ff02191690831515021790555060e08201518160060160016101000a81548160ff021916908315150217905550610100820151816007019081611bdc91906134e8565b5050506020820151604092830151608090811c600160801b0291811c9190911760089092019190915584518083015160608201519282015160a083015160e084015161010094909401519551889633967fa752f66e80f42a9cb846f9ceea27b98533a156c48dec204e9ec30f76dab78b8196611c6196959194919391926000926135c8565b60405180910390a382604001516001600160801b03191683602001516001600160801b0319167fd5a10753f9b1346718a3088dcb16b007cc314e04c2da19a1bd2578369a43671960405160405180910390a3505050565b60066020528160005260406000208181548110611cd457600080fd5b60009182526020918290206040805161012081018252600990930290910180546001600160a01b039081168452600182015481169484019490945260028101548416918301919091526003810154909216606082015260048201546080820152600582015460a0820152600682015460ff808216151560c08401526101009182900416151560e083015260078301805493955091935084929084019190611d7a90613130565b80601f0160208091040260200160405190810160405280929190818152602001828054611da690613130565b8015611df35780601f10611dc857610100808354040283529160200191611df3565b820191906000526020600020905b815481529060010190602001808311611dd657829003601f168201915b50505091909252505050600890910154608081811b91600160801b9004901b83565b611e1d612ada565b6001600160a01b0383166000908152600660205260409020805483908110611e4757611e47613193565b6000918252602090912060408051610180810190915260099092020180546001600160a01b03908116606084019081526001830154821660808501526002830154821660a0850152600383015490911660c0840152600482015460e0840152600582015461010080850191909152600683015460ff8082161515610120870152919004161515610140840152600782018054849291849161016085019190611eee90613130565b80601f0160208091040260200160405190810160405280929190818152602001828054611f1a90613130565b8015611f675780601f10611f3c57610100808354040283529160200191611f67565b820191906000526020600020905b815481529060010190602001808311611f4a57829003601f168201915b505050919092525050508152600891909101546001600160801b0319608082811b82166020850152600160801b90920490911b1660409091015290505b92915050565b611fb26124ae565b600180546001600160a01b0383166001600160a01b03199091168117909155611fe36000546001600160a01b031690565b6001600160a01b03167f38d16b8cac22d99fc7c124b9cd0de2d3fa1faef420bfe791d8c362d765e2270060405160405180910390a350565b600280540361203d57604051633ee5aeb560e01b815260040160405180910390fd5b60028055565b604080516001600160a01b0385811660248301528481166044830152606480830185905283518084039091018152608490920183526020820180516001600160e01b03166323b872dd60e01b17905291516000928392908816916120a7919061361f565b6000604051808303816000865af19150503d80600081146120e4576040519150601f19603f3d011682016040523d82523d6000602084013e6120e9565b606091505b50915091508180156121135750805115806121135750808060200190518101906121139190613254565b6121455760405162461bcd60e51b815260206004820152600360248201526229aa2360e91b6044820152606401610627565b505050505050565b604080516001600160a01b038481166024830152604480830185905283518084039091018152606490920183526020820180516001600160e01b031663095ea7b360e01b17905291516000928392908716916121a9919061361f565b6000604051808303816000865af19150503d80600081146121e6576040519150601f19603f3d011682016040523d82523d6000602084013e6121eb565b606091505b50915091508180156122155750805115806122155750808060200190518101906122159190613254565b6122465760405162461bcd60e51b8152602060048201526002602482015261534160f01b6044820152606401610627565b5050505050565b604080516001600160a01b038481166024830152604480830185905283518084039091018152606490920183526020820180516001600160e01b031663a9059cbb60e01b17905291516000928392908716916122a9919061361f565b6000604051808303816000865af19150503d80600081146122e6576040519150601f19603f3d011682016040523d82523d6000602084013e6122eb565b606091505b50915091508180156123155750805115806123155750808060200190518101906123159190613254565b6122465760405162461bcd60e51b815260206004820152600260248201526114d560f21b6044820152606401610627565b67010a741a462780008111156123935760405162461bcd60e51b81526020600482015260126024820152710cec2e68ccaca40d2e640e8dede40d0d2ced60731b6044820152606401610627565b6001600160a01b0382166000908152600760205260409020548111156123fb5760405162461bcd60e51b815260206004820181905260248201527f646f6573206e6f74206861766520656e6f7567682066656520746f2074616b656044820152606401610627565b6001600160a01b03821660009081526007602052604081208054839290612423908490613180565b90915550819050600760006124406000546001600160a01b031690565b6001600160a01b03166001600160a01b03168152602001908152602001600020600082825461246f91906135b5565b909155505060405181906001600160a01b038416907f1b02d16d3c4c6fce038de5403c8352eb1eb62bc6915b6848683de52a24a723f890600090a35050565b6000546001600160a01b031633146117265760405163118cdaa760e01b8152336004820152602401610627565b600180546001600160a01b0319169055610716816128e6565b805160a00151600090421061253b5760405162461bcd60e51b815260206004820152600d60248201526c1bdc99195c88195e1c1a5c9959609a1b6044820152606401610627565b8151602001516001600160a01b03166125a15760405162461bcd60e51b815260206004820152602260248201527f726563697069656e74206d757374206265206e6f6e2d7a65726f206164647265604482015261737360f01b6064820152608401610627565b8151608001516000036126025760405162461bcd60e51b815260206004820152602360248201527f65786368616e676552617465206d757374206265206e6f6e2d7a65726f2076616044820152626c756560e81b6064820152608401610627565b8151516001600160a01b0316331461265c5760405162461bcd60e51b815260206004820152601c60248201527f6f6e6c7920737761707065722063616e2073746f7265206f72646572000000006044820152606401610627565b815160e0015115612756578151610100015161267790612936565b6126cf5760405162461bcd60e51b815260206004820152602360248201527f656e636f64656450617468206d757374206265206e6f6e2d7a65726f206c656e6044820152620cee8d60eb1b6064820152608401610627565b60006126e383600001516101000151612970565b505090508260000151604001516001600160a01b0316816001600160a01b0316146127505760405162461bcd60e51b815260206004820152601a60248201527f666972737420706f6f6c206d75737420626520746f6b656e496e0000000000006044820152606401610627565b50612822565b8151610100015151156127ab5760405162461bcd60e51b815260206004820152601f60248201527f656e636f64656450617468206d757374206265207a65726f206c656e677468006044820152606401610627565b815160608101516040909101516001600160a01b039182169116036128225760405162461bcd60e51b815260206004820152602760248201527f746f6b656e496e20616e6420746f6b656e4f75742063616e6e6f74206265207460448201526668652073616d6560c81b6064820152608401610627565b60408201516001600160801b0319166000036128805760405162461bcd60e51b815260206004820152601b60248201527f484f7345206d757374206265206e6f6e2d7a65726f2076616c756500000000006044820152606401610627565b60208201516001600160801b0319166000036128de5760405162461bcd60e51b815260206004820152601b60248201527f484f7346206d757374206265206e6f6e2d7a65726f2076616c756500000000006044820152606401610627565b506001919050565b600080546001600160a01b038381166001600160a01b0319831681178455604051919092169283917f8be0079c531659141344cd1fd0a4f28419497f9722a3daafe3b4186f6b6457e09190a35050565b6000612944600360146135b5565b60146129516003826135b5565b61295b91906135b5565b61296591906135b5565b825110159050919050565b6000808061297e84826129ac565b925061298b846014612a11565b90506129a361299c600360146135b5565b85906129ac565b91509193909250565b60006129b98260146135b5565b83511015612a015760405162461bcd60e51b8152602060048201526015602482015274746f416464726573735f6f75744f66426f756e647360581b6044820152606401610627565b500160200151600160601b900490565b600081612a1f8160036135b5565b1015612a615760405162461bcd60e51b8152602060048201526011602482015270746f55696e7432345f6f766572666c6f7760781b6044820152606401610627565b612a6c8260036135b5565b83511015612ab35760405162461bcd60e51b8152602060048201526014602482015273746f55696e7432345f6f75744f66426f756e647360601b6044820152606401610627565b50016003015190565b60405180608001604052806004906020820280368337509192915050565b604080516101808101909152600060608083018281526080840183905260a0840183905260c0840183905260e08401839052610100840183905261012084018390526101408401929092526101608301528190815260006020820181905260409091015290565b508054612b4d90613130565b6000825580601f10612b5d575050565b601f01602090049060005260206000209081019061071691905b80821115612b8b5760008155600101612b77565b5090565b80356001600160a01b0381168114612ba657600080fd5b919050565b600060208284031215612bbd57600080fd5b612bc682612b8f565b9392505050565b60005b83811015612be8578181015183820152602001612bd0565b50506000910152565b60008151808452612c09816020860160208601612bcd565b601f01601f19169290920160200192915050565b80516001600160a01b0316825260006020820151612c4660208501826001600160a01b03169052565b506040820151612c6160408501826001600160a01b03169052565b506060820151612c7c60608501826001600160a01b03169052565b506080820151608084015260a082015160a084015260c0820151612ca460c085018215159052565b5060e0820151612cb860e085018215159052565b50610100820151610120610100850152612cd6610120850182612bf1565b949350505050565b6000815160608452612cf36060850182612c1d565b90506001600160801b031960208401511660208501526001600160801b031960408401511660408501528091505092915050565b6000602082016020835280845180835260408501915060408160051b86010192506020860160005b82811015612d8057603f19878603018452612d6b858351612cde565b94506020938401939190910190600101612d4f565b50929695505050505050565b600060208284031215612d9e57600080fd5b5035919050565b8060408101831015611fa457600080fd5b60008060008060008060008060006101c08a8c031215612dd557600080fd5b612ddf8b8b612da5565b985060c08a018b811115612df257600080fd5b60408b019850612e028c82612da5565b975050612e126101008b01612b8f565b95506101208a013594506101408a013593506101608a013592506101808a013591506101a08a013560028110612e4757600080fd5b809150509295985092959850929598565b634e487b7160e01b600052604160045260246000fd5b6040516060810167ffffffffffffffff81118282101715612e9157612e91612e58565b60405290565b604051610120810167ffffffffffffffff81118282101715612e9157612e91612e58565b801515811461071657600080fd5b8035612ba681612ebb565b600082601f830112612ee557600080fd5b813567ffffffffffffffff811115612eff57612eff612e58565b604051601f8201601f19908116603f0116810167ffffffffffffffff81118282101715612f2e57612f2e612e58565b604052818152838201602001851015612f4657600080fd5b816020850160208301376000918101602001919091529392505050565b80356001600160801b031981168114612ba657600080fd5b600060208284031215612f8d57600080fd5b813567ffffffffffffffff811115612fa457600080fd5b820160608185031215612fb657600080fd5b612fbe612e6e565b813567ffffffffffffffff811115612fd557600080fd5b82016101208187031215612fe857600080fd5b612ff0612e97565b612ff982612b8f565b815261300760208301612b8f565b602082015261301860408301612b8f565b604082015261302960608301612b8f565b60608201526080828101359082015260a0808301359082015261304e60c08301612ec9565b60c082015261305f60e08301612ec9565b60e082015261010082013567ffffffffffffffff81111561307f57600080fd5b61308b88828501612ed4565b610100830152508252506130a160208301612f63565b60208201526130b260408301612f63565b6040820152949350505050565b600080604083850312156130d257600080fd5b6130db83612b8f565b946020939093013593505050565b6060815260006130fc6060830186612c1d565b6001600160801b031994851660208401529290931660409091015292915050565b602081526000612bc66020830184612cde565b600181811c9082168061314457607f821691505b60208210810361316457634e487b7160e01b600052602260045260246000fd5b50919050565b634e487b7160e01b600052601160045260246000fd5b81810381811115611fa457611fa461316a565b634e487b7160e01b600052603260045260246000fd5b8082028115828204841417611fa457611fa461316a565b6000826131dd57634e487b7160e01b600052601260045260246000fd5b500490565b61018081016040868337604082018560005b600281101561321557604082843760409283019291909101906001016131f4565b50505060408460c084013761010082018360005b6004811015613248578151835260209283019290910190600101613229565b50505095945050505050565b60006020828403121561326657600080fd5b8151612bc681612ebb565b634e487b7160e01b600052602160045260246000fd5b6000815160a0845261329c60a0850182612bf1565b6020848101516001600160a01b031690860152604080850151908601526060808501519086015260809384015193909401929092525090919050565b602081526000612bc66020830184613287565b6000602082840312156132fd57600080fd5b5051919050565b80516001600160a01b03908116835260208083015182169084015260408083015162ffffff169084015260608083015191821690840152506080810151608083015260a081015160a083015260c081015160c083015260e081015161337460e08401826001600160a01b03169052565b505050565b6101008101611fa48284613304565b6001600160a01b03968716815294861660208601529290941660408401526060830152608082019290925290151560a082015260c00190565b601f82111561337457806000526020600020601f840160051c810160208510156133e85750805b601f840160051c820191505b8181101561224657600081556001016133f4565b818103613413575050565b61341d8254613130565b67ffffffffffffffff81111561343557613435612e58565b613449816134438454613130565b846133c1565b6000601f82116001811461348057600083156134655750848201545b600184901b600019600386901b1c198216175b855550612246565b600085815260209020601f19841690600086815260209020845b838110156134ba578286015482556001958601959091019060200161349a565b50858310156134d85781850154600019600388901b60f8161c191681555b5050505050600190811b01905550565b815167ffffffffffffffff81111561350257613502612e58565b613510816134438454613130565b6020601f8211600181146135425760008315613465575081850151600184901b600019600386901b1c19821617613478565b600084815260208120601f198516915b828110156135725787850151825560209485019460019092019101613552565b50848210156135905786840151600019600387901b60f8161c191681555b50505050600190811b01905550565b634e487b7160e01b600052603160045260246000fd5b80820180821115611fa457611fa461316a565b6001600160a01b038881168252871660208201526040810186905260608101859052831515608082015282151560a082015260e060c0820181905260009061361290830184612bf1565b9998505050505050505050565b60008251613631818460208701612bcd565b919091019291505056fea2646970667358221220f82d955932dba8de7d37674875c6bf4be513e1f9b0e807ec326115c1434c45fa64736f6c634300081c0033","linkReferences":{}},"methodIdentifiers":{"acceptOwnership()":"79ba5097","addPendingOrder(((address,address,address,address,uint256,uint256,bool,bool,bytes),bytes16,bytes16))":"c680993b","agent()":"f5ff5c76","cancelOrder(uint256)":"514fcac7","depositForGasFee(address)":"6b5da867","gasfee(address)":"8abfcba3","getOrder(address,uint256)":"edb25841","getOrders(address)":"093376fe","orderbook(address,uint256)":"c7d0862d","owner()":"8da5cb5b","pendingOwner()":"e30c3978","renounceOwnership()":"715018a6","router()":"f887ea40","setAgent(address)":"bcf685ed","setRouter(address)":"c0d78655","setVerifier(address)":"5437988d","swapForward(uint256[2],uint256[2][2],uint256[2],address,uint256,uint256,uint256,uint256,uint8)":"458f9a86","transferOwnership(address)":"f2fde38b","verifier()":"2b7ac3f3","withdrawGasFee(uint256)":"19c0f1ce","withdrawTakenFee()":"56ab9955"},"id":34}