{"abi":[{"type":"constructor","inputs":[{"name":"_agent","type":"address","internalType":"address"},{"name":"_router","type":"address","internalType":"address payable"},{"name":"_weth","type":"address","internalType":"address"},{"name":"_verifier","type":"address","internalType":"address"},{"name":"_owner","type":"address","internalType":"address"}],"stateMutability":"nonpayable"},{"type":"function","name":"acceptOwnership","inputs":[],"outputs":[],"stateMutability":"nonpayable"},{"type":"function","name":"addPendingOrder","inputs":[{"name":"_order","type":"tuple","internalType":"struct ZDPc.Order","components":[{"name":"t","type":"tuple","internalType":"struct ZDPc.OrderDetails","components":[{"name":"swapper","type":"address","internalType":"address"},{"name":"recipient","type":"address","internalType":"address"},{"name":"tokenIn","type":"address","internalType":"address"},{"name":"tokenOut","type":"address","internalType":"address"},{"name":"exchangeRate","type":"uint256","internalType":"uint256"},{"name":"deadline","type":"uint256","internalType":"uint256"},{"name":"OrderIsExecuted","type":"bool","internalType":"bool"},{"name":"isMultiPath","type":"bool","internalType":"bool"},{"name":"encodedPath","type":"bytes","internalType":"bytes"}]},{"name":"HOsF","type":"bytes16","internalType":"bytes16"},{"name":"HOsE","type":"bytes16","internalType":"bytes16"}]}],"outputs":[],"stateMutability":"nonpayable"},{"type":"function","name":"agent","inputs":[],"outputs":[{"name":"","type":"address","internalType":"address"}],"stateMutability":"view"},{"type":"function","name":"cancelOrder","inputs":[{"name":"index","type":"uint256","internalType":"uint256"}],"outputs":[],"stateMutability":"nonpayable"},{"type":"function","name":"depositForGasFee","inputs":[{"name":"swapper","type":"address","internalType":"address"}],"outputs":[],"stateMutability":"payable"},{"type":"function","name":"gasfee","inputs":[{"name":"","type":"address","internalType":"address"}],"outputs":[{"name":"","type":"uint256","internalType":"uint256"}],"stateMutability":"view"},{"type":"function","name":"orderbook","inputs":[{"name":"","type":"address","internalType":"address"},{"name":"","type":"uint256","internalType":"uint256"}],"outputs":[{"name":"t","type":"tuple","internalType":"struct ZDPc.OrderDetails","components":[{"name":"swapper","type":"address","internalType":"address"},{"name":"recipient","type":"address","internalType":"address"},{"name":"tokenIn","type":"address","internalType":"address"},{"name":"tokenOut","type":"address","internalType":"address"},{"name":"exchangeRate","type":"uint256","internalType":"uint256"},{"name":"deadline","type":"uint256","internalType":"uint256"},{"name":"OrderIsExecuted","type":"bool","internalType":"bool"},{"name":"isMultiPath","type":"bool","internalType":"bool"},{"name":"encodedPath","type":"bytes","internalType":"bytes"}]},{"name":"HOsF","type":"bytes16","internalType":"bytes16"},{"name":"HOsE","type":"bytes16","internalType":"bytes16"}],"stateMutability":"view"},{"type":"function","name":"owner","inputs":[],"outputs":[{"name":"","type":"address","internalType":"address"}],"stateMutability":"view"},{"type":"function","name":"pendingOwner","inputs":[],"outputs":[{"name":"","type":"address","internalType":"address"}],"stateMutability":"view"},{"type":"function","name":"renounceOwnership","inputs":[],"outputs":[],"stateMutability":"nonpayable"},{"type":"function","name":"router","inputs":[],"outputs":[{"name":"","type":"address","internalType":"contract ISwapRouter"}],"stateMutability":"view"},{"type":"function","name":"setAgent","inputs":[{"name":"_agent","type":"address","internalType":"address"}],"outputs":[],"stateMutability":"nonpayable"},{"type":"function","name":"setRouter","inputs":[{"name":"_router","type":"address","internalType":"address"}],"outputs":[],"stateMutability":"nonpayable"},{"type":"function","name":"setVerifier","inputs":[{"name":"_verifier","type":"address","internalType":"address"}],"outputs":[],"stateMutability":"nonpayable"},{"type":"function","name":"swapForward","inputs":[{"name":"_proofA","type":"uint256[2]","internalType":"uint256[2]"},{"name":"_proofB","type":"uint256[2][2]","internalType":"uint256[2][2]"},{"name":"_proofC","type":"uint256[2]","internalType":"uint256[2]"},{"name":"swapper","type":"address","internalType":"address"},{"name":"index","type":"uint256","internalType":"uint256"},{"name":"a0e","type":"uint256","internalType":"uint256"},{"name":"a1m","type":"uint256","internalType":"uint256"},{"name":"_gasFee","type":"uint256","internalType":"uint256"},{"name":"_type","type":"uint8","internalType":"enum ZDPc.OrderType"}],"outputs":[],"stateMutability":"payable"},{"type":"function","name":"transferOwnership","inputs":[{"name":"newOwner","type":"address","internalType":"address"}],"outputs":[],"stateMutability":"nonpayable"},{"type":"function","name":"verifier","inputs":[],"outputs":[{"name":"","type":"address","internalType":"contract Groth16Verifier"}],"stateMutability":"view"},{"type":"function","name":"weth","inputs":[],"outputs":[{"name":"","type":"address","internalType":"contract IWETH"}],"stateMutability":"view"},{"type":"function","name":"withdrawGasFee","inputs":[{"name":"amount","type":"uint256","internalType":"uint256"}],"outputs":[],"stateMutability":"nonpayable"},{"type":"function","name":"withdrawTakenFee","inputs":[],"outputs":[],"stateMutability":"nonpayable"},{"type":"event","name":"AgentChanged","inputs":[{"name":"oldAgent","type":"address","indexed":true,"internalType":"address"},{"name":"newAgent","type":"address","indexed":true,"internalType":"address"}],"anonymous":false},{"type":"event","name":"FeeDeposit","inputs":[{"name":"swapper","type":"address","indexed":true,"internalType":"address"},{"name":"fee","type":"uint256","indexed":true,"internalType":"uint256"}],"anonymous":false},{"type":"event","name":"FeeTaken","inputs":[{"name":"swapper","type":"address","indexed":true,"internalType":"address"},{"name":"fee","type":"uint256","indexed":true,"internalType":"uint256"}],"anonymous":false},{"type":"event","name":"FeeWithdrawn","inputs":[{"name":"swapper","type":"address","indexed":true,"internalType":"address"},{"name":"fee","type":"uint256","indexed":true,"internalType":"uint256"}],"anonymous":false},{"type":"event","name":"OrderCancelled","inputs":[{"name":"swapper","type":"address","indexed":false,"internalType":"address"},{"name":"index","type":"uint256","indexed":true,"internalType":"uint256"},{"name":"tokenIn","type":"address","indexed":false,"internalType":"address"},{"name":"tokenOut","type":"address","indexed":false,"internalType":"address"},{"name":"exchangeRate","type":"uint256","indexed":false,"internalType":"uint256"},{"name":"deadline","type":"uint256","indexed":false,"internalType":"uint256"},{"name":"OrderIsExecuted","type":"bool","indexed":false,"internalType":"bool"}],"anonymous":false},{"type":"event","name":"OrderExecuted","inputs":[{"name":"swapper","type":"address","indexed":false,"internalType":"address"},{"name":"index","type":"uint256","indexed":true,"internalType":"uint256"},{"name":"tokenIn","type":"address","indexed":false,"internalType":"address"},{"name":"tokenOut","type":"address","indexed":false,"internalType":"address"},{"name":"exchangeRate","type":"uint256","indexed":false,"internalType":"uint256"},{"name":"deadline","type":"uint256","indexed":false,"internalType":"uint256"},{"name":"OrderIsExecuted","type":"bool","indexed":false,"internalType":"bool"}],"anonymous":false},{"type":"event","name":"OrderStored","inputs":[{"name":"swapper","type":"address","indexed":true,"internalType":"address"},{"name":"index","type":"uint256","indexed":true,"internalType":"uint256"},{"name":"tokenIn","type":"address","indexed":false,"internalType":"address"},{"name":"tokenOut","type":"address","indexed":false,"internalType":"address"},{"name":"exchangeRate","type":"uint256","indexed":false,"internalType":"uint256"},{"name":"deadline","type":"uint256","indexed":false,"internalType":"uint256"},{"name":"OrderIsExecuted","type":"bool","indexed":false,"internalType":"bool"}],"anonymous":false},{"type":"event","name":"OwnershipTransferStarted","inputs":[{"name":"previousOwner","type":"address","indexed":true,"internalType":"address"},{"name":"newOwner","type":"address","indexed":true,"internalType":"address"}],"anonymous":false},{"type":"event","name":"OwnershipTransferred","inputs":[{"name":"previousOwner","type":"address","indexed":true,"internalType":"address"},{"name":"newOwner","type":"address","indexed":true,"internalType":"address"}],"anonymous":false},{"type":"event","name":"RouterChanged","inputs":[{"name":"oldRouter","type":"address","indexed":true,"internalType":"address"},{"name":"newRouter","type":"address","indexed":true,"internalType":"address"}],"anonymous":false},{"type":"event","name":"TakenFeeWithdrawn","inputs":[{"name":"owner","type":"address","indexed":true,"internalType":"address"},{"name":"fee","type":"uint256","indexed":true,"internalType":"uint256"}],"anonymous":false},{"type":"event","name":"VerifierChanged","inputs":[{"name":"oldVerifier","type":"address","indexed":true,"internalType":"address"},{"name":"newVerifier","type":"address","indexed":true,"internalType":"address"}],"anonymous":false},{"type":"error","name":"AddressEmptyCode","inputs":[{"name":"target","type":"address","internalType":"address"}]},{"type":"error","name":"AddressInsufficientBalance","inputs":[{"name":"account","type":"address","internalType":"address"}]},{"type":"error","name":"FailedInnerCall","inputs":[]},{"type":"error","name":"OwnableInvalidOwner","inputs":[{"name":"owner","type":"address","internalType":"address"}]},{"type":"error","name":"OwnableUnauthorizedAccount","inputs":[{"name":"account","type":"address","internalType":"address"}]},{"type":"error","name":"ReentrancyGuardReentrantCall","inputs":[]},{"type":"error","name":"SafeERC20FailedOperation","inputs":[{"name":"token","type":"address","internalType":"address"}]}],"bytecode":{"object":"0x608060405234801561001057600080fd5b50604051612f46380380612f4683398101604081905261002f9161017b565b806001600160a01b03811661005e57604051631e4fbdf760e01b81526000600482015260240160405180910390fd5b610067816100fa565b5060016002556001600160a01b03851661008057600080fd5b6001600160a01b03841661009357600080fd5b6001600160a01b0382166100a657600080fd5b50600380546001600160a01b039586166001600160a01b03199182161790915560048054948616948216949094179093556005805492851692841692909217909155600680549190931691161790556101f0565b600180546001600160a01b031916905561011381610116565b50565b600080546001600160a01b038381166001600160a01b0319831681178455604051919092169283917f8be0079c531659141344cd1fd0a4f28419497f9722a3daafe3b4186f6b6457e09190a35050565b6001600160a01b038116811461011357600080fd5b600080600080600060a0868803121561019357600080fd5b855161019e81610166565b60208701519095506101af81610166565b60408701519094506101c081610166565b60608701519093506101d181610166565b60808701519092506101e281610166565b809150509295509295909350565b612d47806101ff6000396000f3fe60806040526004361061011f5760003560e01c80638abfcba3116100a0578063c7d0862d11610064578063c7d0862d14610301578063e30c397814610330578063f2fde38b1461034e578063f5ff5c761461036e578063f887ea401461038e57600080fd5b80638abfcba3146102485780638da5cb5b14610283578063bcf685ed146102a1578063c0d78655146102c1578063c680993b146102e157600080fd5b80635437988d116100e75780635437988d146101d657806356ab9955146101f65780636b5da8671461020b578063715018a61461021e57806379ba50971461023357600080fd5b806319c0f1ce146101245780632b7ac3f3146101465780633fc8cef314610183578063458f9a86146101a3578063514fcac7146101b6575b600080fd5b34801561013057600080fd5b5061014461013f366004612395565b6103ae565b005b34801561015257600080fd5b50600654610166906001600160a01b031681565b6040516001600160a01b0390911681526020015b60405180910390f35b34801561018f57600080fd5b50600554610166906001600160a01b031681565b6101446101b13660046123db565b610508565b3480156101c257600080fd5b506101446101d1366004612395565b610f05565b3480156101e257600080fd5b506101446101f136600461247d565b611589565b34801561020257600080fd5b506101446115e3565b61014461021936600461247d565b611754565b34801561022a57600080fd5b50610144611860565b34801561023f57600080fd5b50610144611874565b34801561025457600080fd5b5061027561026336600461247d565b60086020526000908152604090205481565b60405190815260200161017a565b34801561028f57600080fd5b506000546001600160a01b0316610166565b3480156102ad57600080fd5b506101446102bc36600461247d565b6118b5565b3480156102cd57600080fd5b506101446102dc36600461247d565b61190f565b3480156102ed57600080fd5b506101446102fc3660046125bb565b611969565b34801561030d57600080fd5b5061032161031c3660046126ff565b611b65565b60405161017a93929190612779565b34801561033c57600080fd5b506001546001600160a01b0316610166565b34801561035a57600080fd5b5061014461036936600461247d565b611cc2565b34801561037a57600080fd5b50600354610166906001600160a01b031681565b34801561039a57600080fd5b50600454610166906001600160a01b031681565b6103b6611d33565b600081116103c357600080fd5b3360009081526008602052604090205481111561041f5760405162461bcd60e51b81526020600482015260156024820152744e6f20656e6f7567682066656520746f2074616b6560581b60448201526064015b60405180910390fd5b336000908152600860205260408120805483929061043e908490612871565b9091555050604051600090339083908381818185875af1925050503d8060008114610485576040519150601f19603f3d011682016040523d82523d6000602084013e61048a565b606091505b50509050806104cd5760405162461bcd60e51b815260206004820152600f60248201526e1d1c985b9cd9995c8819985a5b1959608a1b6044820152606401610416565b604051829033907f78473f3f373f7673597f4f0fa5873cb4d375fea6d4339ad6b56dbd411513cb3f90600090a3506105056001600255565b50565b6003546001600160a01b0316331461056c5760405162461bcd60e51b815260206004820152602160248201527f6f6e6c79206167656e742063616e2063616c6c20746869732066756e6374696f6044820152603760f91b6064820152608401610416565b6001600160a01b038616600090815260076020526040812080548790811061059657610596612884565b6000918252602090912060408051610180810190915260099092020180546001600160a01b03908116606084019081526001830154821660808501526002830154821660a0850152600383015490911660c0840152600482015460e0840152600582015461010080850191909152600683015460ff808216151561012087015291900416151561014084015260078201805484929184916101608501919061063d9061289a565b80601f01602080910402602001604051908101604052809291908181526020018280546106699061289a565b80156106b65780601f1061068b576101008083540402835291602001916106b6565b820191906000526020600020905b81548152906001019060200180831161069957829003601f168201915b505050919092525050508152600891909101546001600160801b0319608082811b8216602080860191909152600160801b909304901b166040928301528251908101519181015160609091015192935090918661071b89670de0b6b3a76400006128d4565b61072591906128eb565b845160800151111561076c5760405162461bcd60e51b815260206004820152601060248201526f6261642065786368616e67655261746560801b6044820152606401610416565b835160c00151156107b25760405162461bcd60e51b815260206004820152601060248201526f185b1c9958591e48195e1958dd5d195960821b6044820152606401610416565b835160a001514211156107f75760405162461bcd60e51b815260206004820152600d60248201526c1bdc99195c88195e1c1a5c9959609a1b6044820152606401610416565b6107ff612329565b602085015160801c8160006020020152604085015160801c816001602002015288816002602002015287816003602002018181525050600660009054906101000a90046001600160a01b03166001600160a01b0316635fe8c13b8f8f8f856040518563ffffffff1660e01b815260040161087c949392919061290d565b602060405180830381865afa158015610899573d6000803e3d6000fd5b505050506040513d601f19601f820116820180604052508101906108bd919061297f565b6108fe5760405162461bcd60e51b8152602060048201526012602482015271141c9bdbd9881a5cc81b9bdd081d985b1a5960721b6044820152606401610416565b60008660018111156109125761091261299c565b03610a4757845160e00151156109d0576040805160a080820183528751610100015182526001600160a01b03808816602084015288519091015182840152606082018c9052608082018b905260048054935163c04b8d5960e01b815292939091169163c04b8d599161098691859101612a03565b6020604051808303816000875af11580156109a5573d6000803e3d6000fd5b505050506040513d601f19601f820116820180604052508101906109c99190612a16565b5050610ef5565b60408051610100810182526001600160a01b0380861682528481166020830152610bb8828401528681166060830152875160a090810151608084015282018c905260c082018b9052600060e083015260048054935163414bf38960e01b815292939091169163414bf3899161098691859101612a9f565b6001866001811115610a5b57610a5b61299c565b03610ef557845160e0015115610b19576040805160a080820183528751610100015182526001600160a01b03808816602084015288519091015182840152606082018b9052608082018c9052600480549351631e51809360e31b815292939091169163f28c049891610acf91859101612a03565b6020604051808303816000875af1158015610aee573d6000803e3d6000fd5b505050506040513d601f19601f82011682018060405250810190610b129190612a16565b5050610bd6565b60408051610100810182526001600160a01b0380861682528481166020830152610bb8828401528681166060830152875160a090810151608084015282018b905260c082018c9052600060e0830152600480549351631b67c43360e31b815292939091169163db3e219891610b9091859101612a9f565b6020604051808303816000875af1158015610baf573d6000803e3d6000fd5b505050506040513d601f19601f82011682018060405250810190610bd39190612a16565b50505b6001600160a01b038316610d7857610bee8988612aae565b8551516001600160a01b03166000908152600860205260409020541015610c575760405162461bcd60e51b815260206004820152601860248201527f696e73756666696369656e74206665652062616c616e636500000000000000006044820152606401610416565b8451516001600160a01b0316600090815260086020526040812080548b9290610c81908490612871565b909155505060055460408051630d0e30db60e41b815290516001600160a01b039092169163d0e30db0918c91600480830192600092919082900301818588803b158015610ccd57600080fd5b505af1158015610ce1573d6000803e3d6000fd5b50506005546004805460405163095ea7b360e01b81526001600160a01b0391821692810192909252602482018f9052909116935063095ea7b3925060440190506020604051808303816000875af1158015610d40573d6000803e3d6000fd5b505050506040513d601f19601f82011682018060405250810190610d64919061297f565b506005546001600160a01b03169250610e08565b610d8d6001600160a01b0384168c308c611d5b565b6004805460405163095ea7b360e01b81526001600160a01b0391821692810192909252602482018b905284169063095ea7b3906044016020604051808303816000875af1158015610de2573d6000803e3d6000fd5b505050506040513d601f19601f82011682018060405250810190610e06919061297f565b505b6001600160a01b038216610e25576005546001600160a01b031691505b6001600160a01b038b1660009081526007602052604090208054600191908c908110610e5357610e53612884565b60009182526020909120600990910201600601805460ff1916911515919091179055845151610e829088611dbb565b897ff235922b876688d636d7f228c123359235291c29677d901bee94c77f061f42698660000151600001518760000151604001518860000151606001518960000151608001518a6000015160a001518b6000015160c00151604051610eec96959493929190612ac1565b60405180910390a25b5050505050505050505050505050565b336000908152600760205260409020805482908110610f2657610f26612884565b600091825260209091206006600990920201015460ff1615610f7d5760405162461bcd60e51b815260206004820152601060248201526f185b1c9958591e48195e1958dd5d195960821b6044820152606401610416565b336000908152600760205260408120805483908110610f9e57610f9e612884565b60009182526020909120600160099092020101546001600160a01b0316036110085760405162461bcd60e51b815260206004820152601860248201527f726563697069656e7420646f6573206e6f7420657869737400000000000000006044820152606401610416565b6040805161018081018252600060608083018281526080840183905260a0840183905260c0840183905260e08401839052610100840183905261012084018390526101408401839052610160840191909152825260208083018290528284018290523382526007905291909120805490611083600183612871565b8154811061109357611093612884565b6000918252602090912060408051610180810190915260099092020180546001600160a01b03908116606084019081526001830154821660808501526002830154821660a0850152600383015490911660c0840152600482015460e0840152600582015461010080850191909152600683015460ff808216151561012087015291900416151561014084015260078201805484929184916101608501919061113a9061289a565b80601f01602080910402602001604051908101604052809291908181526020018280546111669061289a565b80156111b35780601f10611188576101008083540402835291602001916111b3565b820191906000526020600020905b81548152906001019060200180831161119657829003601f168201915b505050919092525050508152600891909101546001600160801b0319608082811b8216602080860191909152600160801b909304901b166040928301523360009081526007909152208054919350908490811061121257611212612884565b600091825260208083203384526007909152604090922060099091029091019061123d600184612871565b8154811061124d5761124d612884565b60009182526020909120825460099092020180546001600160a01b03199081166001600160a01b0393841617825560018085015490830180548316918516919091179055600280850154908301805483169185169190911790556003808501549083018054909216931692909217909155600480830154908201556005808301549082015560068083018054918301805460ff938416151560ff19821681178355925461010090819004909416151590930261ff001990921661ffff1990931692909217179055818160078082019061132890840182612b48565b505050600891820180549190920180546001600160801b0319166fffffffffffffffffffffffffffffffff92831690811782559254600160801b90819004909216909102909117905533600090815260076020526040902080548391908590811061139557611395612884565b60009182526020918290208351805160099390930290910180546001600160a01b03199081166001600160a01b039485161782559382015160018201805486169185169190911790556040820151600282018054861691851691909117905560608201516003820180549095169316929092179092556080820151600482015560a0820151600582015560c082015160068201805460e085015161ffff1990911692151561ff001916929092176101009215158302179055820151909190829060078201906114649082612c28565b505050602082810151604093840151608090811c600160801b0291901c176008909201919091553360009081526007909152208054806114a6576114a6612cdf565b60008281526020812060096000199093019283020180546001600160a01b0319908116825560018201805482169055600282018054821690556003820180549091169055600481018290556005810182905560068101805461ffff191690559081816115156007830182612347565b505060006008929092019190915550905581516040808201516060830151608084015160a085015160c090950151935188957f33908de3197827f2ef40153d9c3d3ea8c493ef3137279ee71e8acbd4998231049561157c9533959094909390929190612ac1565b60405180910390a2505050565b611591611f23565b600680546001600160a01b038381166001600160a01b0319831681179093556040519116919082907f0ddda8be1021ab00f63727c5c5504ad96b163269770a3fe8ac3dd0bcb40208df90600090a35050565b6115eb611f23565b6000600860006116036000546001600160a01b031690565b6001600160a01b03166001600160a01b0316815260200190815260200160002054905060006008600061163e6000546001600160a01b031690565b6001600160a01b03166001600160a01b031681526020019081526020016000208190555060006116766000546001600160a01b031690565b6001600160a01b03168260405160006040518083038185875af1925050503d80600081146116c0576040519150601f19603f3d011682016040523d82523d6000602084013e6116c5565b606091505b50509050806117085760405162461bcd60e51b815260206004820152600f60248201526e1d1c985b9cd9995c8819985a5b1959608a1b6044820152606401610416565b8161171b6000546001600160a01b031690565b6001600160a01b03167f6b18e5ec1eb85e65aec1256ffdeead20d0d855853dfa10c96d4144d9310cf5ec60405160405180910390a35050565b600034116117a45760405162461bcd60e51b815260206004820152601e60248201527f6465706f736974206d757374206265206e6f6e2d7a65726f2076616c756500006044820152606401610416565b6001600160a01b0381166117fa5760405162461bcd60e51b815260206004820181905260248201527f73776170706572206d757374206265206e6f6e2d7a65726f20616464726573736044820152606401610416565b6001600160a01b03811660009081526008602052604081208054349290611822908490612aae565b909155505060405134906001600160a01b038316907fa8491ef03ac2868e696ed75957d04a1175eb88946dbc13ee05e75040c8db91d990600090a350565b611868611f23565b6118726000611f50565b565b60015433906001600160a01b031681146118ac5760405163118cdaa760e01b81526001600160a01b0382166004820152602401610416565b61050581611f50565b6118bd611f23565b600380546001600160a01b038381166001600160a01b0319831681179093556040519116919082907fb21f1bf0d206b43eb02be4f423c2788a95affbda226125eaecabe3def8ba5c4290600090a35050565b611917611f23565b600480546001600160a01b038381166001600160a01b0319831681179093556040519116919082907fc736654a613824c69968e0ec25ac1a428ccd49e15c28e97b5dfd2c6059757e2a90600090a35050565b61197281611f69565b50805160c00151156119bb5760405162461bcd60e51b815260206004820152601260248201527118d85b9b9bdd08189948195e1958dd5d195960721b6044820152606401610416565b8051516001600160a01b03908116600090815260076020818152604080842054865151861685528185208054600180820183559187529584902088518051600990980290910180546001600160a01b0319908116988a1698909817815594810151918501805488169289169290921790915591820151600284018054871691881691909117905560608201516003840180549096169616959095179093556080830151600482015560a0830151600582015560c083015160068201805460e086015161ffff1990911692151561ff00191692909217610100921515830217905583015185939192839190820190611ab29082612c28565b5050506020820151604092830151608090811c600160801b0291811c9190911760089092019190915583518083015160608201519282015160a083015160c0909301519451869533957f826fc39d393249494f77103f254d6f9898501dd89e65f6c040ebbf359bcb762595611b5995949193919290916001600160a01b03958616815293909416602084015260408301919091526060820152901515608082015260a00190565b60405180910390a35050565b60076020528160005260406000208181548110611b8157600080fd5b60009182526020918290206040805161012081018252600990930290910180546001600160a01b039081168452600182015481169484019490945260028101548416918301919091526003810154909216606082015260048201546080820152600582015460a0820152600682015460ff808216151560c08401526101009182900416151560e083015260078301805493955091935084929084019190611c279061289a565b80601f0160208091040260200160405190810160405280929190818152602001828054611c539061289a565b8015611ca05780601f10611c7557610100808354040283529160200191611ca0565b820191906000526020600020905b815481529060010190602001808311611c8357829003601f168201915b50505091909252505050600890910154608081811b91600160801b9004901b83565b611cca611f23565b600180546001600160a01b0383166001600160a01b03199091168117909155611cfb6000546001600160a01b031690565b6001600160a01b03167f38d16b8cac22d99fc7c124b9cd0de2d3fa1faef420bfe791d8c362d765e2270060405160405180910390a350565b6002805403611d5557604051633ee5aeb560e01b815260040160405180910390fd5b60028055565b604080516001600160a01b0385811660248301528416604482015260648082018490528251808303909101815260849091019091526020810180516001600160e01b03166323b872dd60e01b179052611db5908590612136565b50505050565b67010a741a46278000811115611e085760405162461bcd60e51b81526020600482015260126024820152710cec2e68ccaca40d2e640e8dede40d0d2ced60731b6044820152606401610416565b6001600160a01b038216600090815260086020526040902054811115611e705760405162461bcd60e51b815260206004820181905260248201527f646f6573206e6f74206861766520656e6f7567682066656520746f2074616b656044820152606401610416565b6001600160a01b03821660009081526008602052604081208054839290611e98908490612871565b9091555081905060086000611eb56000546001600160a01b031690565b6001600160a01b03166001600160a01b031681526020019081526020016000206000828254611ee49190612aae565b909155505060405181906001600160a01b038416907f1b02d16d3c4c6fce038de5403c8352eb1eb62bc6915b6848683de52a24a723f890600090a35050565b6000546001600160a01b031633146118725760405163118cdaa760e01b8152336004820152602401610416565b600180546001600160a01b03191690556105058161219e565b805160a001516000904210611fb05760405162461bcd60e51b815260206004820152600d60248201526c1bdc99195c88195e1c1a5c9959609a1b6044820152606401610416565b815160608101516040909101516001600160a01b0391821691160361200d5760405162461bcd60e51b81526020600482015260136024820152721d1bdad95b925b880f4f481d1bdad95b93dd5d606a1b6044820152606401610416565b8151602001516001600160a01b03166120735760405162461bcd60e51b815260206004820152602260248201527f726563697069656e74206d757374206265206e6f6e2d7a65726f206164647265604482015261737360f01b6064820152608401610416565b8151608001516000036120d45760405162461bcd60e51b815260206004820152602360248201527f65786368616e676552617465206d757374206265206e6f6e2d7a65726f2076616044820152626c756560e81b6064820152608401610416565b8151516001600160a01b0316331461212e5760405162461bcd60e51b815260206004820152601c60248201527f6f6e6c7920737761707065722063616e2073746f7265206f72646572000000006044820152606401610416565b506001919050565b600061214b6001600160a01b038416836121ee565b9050805160001415801561217057508080602001905181019061216e919061297f565b155b1561219957604051635274afe760e01b81526001600160a01b0384166004820152602401610416565b505050565b600080546001600160a01b038381166001600160a01b0319831681178455604051919092169283917f8be0079c531659141344cd1fd0a4f28419497f9722a3daafe3b4186f6b6457e09190a35050565b60606121fc83836000612205565b90505b92915050565b60608147101561222a5760405163cd78605960e01b8152306004820152602401610416565b600080856001600160a01b031684866040516122469190612cf5565b60006040518083038185875af1925050503d8060008114612283576040519150601f19603f3d011682016040523d82523d6000602084013e612288565b606091505b50915091506122988683836122a4565b925050505b9392505050565b6060826122b9576122b482612300565b61229d565b81511580156122d057506001600160a01b0384163b155b156122f957604051639996b31560e01b81526001600160a01b0385166004820152602401610416565b508061229d565b8051156123105780518082602001fd5b604051630a12f52160e11b815260040160405180910390fd5b60405180608001604052806004906020820280368337509192915050565b5080546123539061289a565b6000825580601f10612363575050565b601f01602090049060005260206000209081019061050591905b80821115612391576000815560010161237d565b5090565b6000602082840312156123a757600080fd5b5035919050565b80604081018310156121ff57600080fd5b80356001600160a01b03811681146123d657600080fd5b919050565b60008060008060008060008060006101c08a8c0312156123fa57600080fd5b6124048b8b6123ae565b985060c08a018b81111561241757600080fd5b60408b0198506124278c826123ae565b9750506124376101008b016123bf565b95506101208a013594506101408a013593506101608a013592506101808a013591506101a08a01356002811061246c57600080fd5b809150509295985092959850929598565b60006020828403121561248f57600080fd5b6121fc826123bf565b634e487b7160e01b600052604160045260246000fd5b6040516060810167ffffffffffffffff811182821017156124d1576124d1612498565b60405290565b604051610120810167ffffffffffffffff811182821017156124d1576124d1612498565b801515811461050557600080fd5b80356123d6816124fb565b600082601f83011261252557600080fd5b813567ffffffffffffffff81111561253f5761253f612498565b604051601f8201601f19908116603f0116810167ffffffffffffffff8111828210171561256e5761256e612498565b60405281815283820160200185101561258657600080fd5b816020850160208301376000918101602001919091529392505050565b80356001600160801b0319811681146123d657600080fd5b6000602082840312156125cd57600080fd5b813567ffffffffffffffff8111156125e457600080fd5b8201606081850312156125f657600080fd5b6125fe6124ae565b813567ffffffffffffffff81111561261557600080fd5b8201610120818703121561262857600080fd5b6126306124d7565b612639826123bf565b8152612647602083016123bf565b6020820152612658604083016123bf565b6040820152612669606083016123bf565b60608201526080828101359082015260a0808301359082015261268e60c08301612509565b60c082015261269f60e08301612509565b60e082015261010082013567ffffffffffffffff8111156126bf57600080fd5b6126cb88828501612514565b610100830152508252506126e1602083016125a3565b60208201526126f2604083016125a3565b6040820152949350505050565b6000806040838503121561271257600080fd5b61271b836123bf565b946020939093013593505050565b60005b8381101561274457818101518382015260200161272c565b50506000910152565b60008151808452612765816020860160208601612729565b601f01601f19169290920160200192915050565b606081526127936060820185516001600160a01b03169052565b600060208501516127af60808401826001600160a01b03169052565b5060408501516001600160a01b03811660a08401525060608501516001600160a01b03811660c084015250608085015160e083015260a085015161010083015260c08501518015156101208401525060e08501518015156101408401525061010085015161012061016084015261282a61018084018261274d565b91505061284360208301856001600160801b0319169052565b6001600160801b031983166040830152949350505050565b634e487b7160e01b600052601160045260246000fd5b818103818111156121ff576121ff61285b565b634e487b7160e01b600052603260045260246000fd5b600181811c908216806128ae57607f821691505b6020821081036128ce57634e487b7160e01b600052602260045260246000fd5b50919050565b80820281158282048414176121ff576121ff61285b565b60008261290857634e487b7160e01b600052601260045260246000fd5b500490565b61018081016040868337604082018560005b6002811015612940576040828437604092830192919091019060010161291f565b50505060408460c084013761010082018360005b6004811015612973578151835260209283019290910190600101612954565b50505095945050505050565b60006020828403121561299157600080fd5b815161229d816124fb565b634e487b7160e01b600052602160045260246000fd5b6000815160a084526129c760a085018261274d565b6020848101516001600160a01b031690860152604080850151908601526060808501519086015260809384015193909401929092525090919050565b6020815260006121fc60208301846129b2565b600060208284031215612a2857600080fd5b5051919050565b80516001600160a01b03908116835260208083015182169084015260408083015162ffffff169084015260608083015191821690840152506080810151608083015260a081015160a083015260c081015160c083015260e081015161219960e08401826001600160a01b03169052565b61010081016121ff8284612a2f565b808201808211156121ff576121ff61285b565b6001600160a01b03968716815294861660208601529290941660408401526060830152608082019290925290151560a082015260c00190565b601f82111561219957806000526020600020601f840160051c81016020851015612b215750805b601f840160051c820191505b81811015612b415760008155600101612b2d565b5050505050565b818103612b53575050565b612b5d825461289a565b67ffffffffffffffff811115612b7557612b75612498565b612b8981612b83845461289a565b84612afa565b6000601f821160018114612bc05760008315612ba55750848201545b600184901b600019600386901b1c198216175b855550612b41565b600085815260209020601f19841690600086815260209020845b83811015612bfa5782860154825560019586019590910190602001612bda565b5085831015612c185781850154600019600388901b60f8161c191681555b5050505050600190811b01905550565b815167ffffffffffffffff811115612c4257612c42612498565b612c5081612b83845461289a565b6020601f821160018114612c825760008315612ba5575081850151600184901b600019600386901b1c19821617612bb8565b600084815260208120601f198516915b82811015612cb25787850151825560209485019460019092019101612c92565b5084821015612cd05786840151600019600387901b60f8161c191681555b50505050600190811b01905550565b634e487b7160e01b600052603160045260246000fd5b60008251612d07818460208701612729565b919091019291505056fea264697066735822122081acab0318bdc4e67f8b25e7414c967122740f1c70b14e8c3ce4d2bd0214d51f64736f6c634300081c0033","linkReferences":{}},"methodIdentifiers":{"acceptOwnership()":"79ba5097","addPendingOrder(((address,address,address,address,uint256,uint256,bool,bool,bytes),bytes16,bytes16))":"c680993b","agent()":"f5ff5c76","cancelOrder(uint256)":"514fcac7","depositForGasFee(address)":"6b5da867","gasfee(address)":"8abfcba3","orderbook(address,uint256)":"c7d0862d","owner()":"8da5cb5b","pendingOwner()":"e30c3978","renounceOwnership()":"715018a6","router()":"f887ea40","setAgent(address)":"bcf685ed","setRouter(address)":"c0d78655","setVerifier(address)":"5437988d","swapForward(uint256[2],uint256[2][2],uint256[2],address,uint256,uint256,uint256,uint256,uint8)":"458f9a86","transferOwnership(address)":"f2fde38b","verifier()":"2b7ac3f3","weth()":"3fc8cef3","withdrawGasFee(uint256)":"19c0f1ce","withdrawTakenFee()":"56ab9955"},"id":11}