{"abi":[{"type":"constructor","inputs":[{"name":"_agent","type":"address","internalType":"address"},{"name":"_router","type":"address","internalType":"address payable"},{"name":"_weth","type":"address","internalType":"address"},{"name":"_verifier","type":"address","internalType":"address"},{"name":"_owner","type":"address","internalType":"address"}],"stateMutability":"nonpayable"},{"type":"function","name":"acceptOwnership","inputs":[],"outputs":[],"stateMutability":"nonpayable"},{"type":"function","name":"addPendingOrder","inputs":[{"name":"_order","type":"tuple","internalType":"struct ZDPc.Order","components":[{"name":"t","type":"tuple","internalType":"struct ZDPc.OrderDetails","components":[{"name":"swapper","type":"address","internalType":"address"},{"name":"recipient","type":"address","internalType":"address"},{"name":"tokenIn","type":"address","internalType":"address"},{"name":"tokenOut","type":"address","internalType":"address"},{"name":"exchangeRate","type":"uint256","internalType":"uint256"},{"name":"deadline","type":"uint256","internalType":"uint256"},{"name":"OrderIsExecuted","type":"bool","internalType":"bool"}]},{"name":"HOsF","type":"bytes16","internalType":"bytes16"},{"name":"HOsE","type":"bytes16","internalType":"bytes16"}]}],"outputs":[],"stateMutability":"nonpayable"},{"type":"function","name":"agent","inputs":[],"outputs":[{"name":"","type":"address","internalType":"address"}],"stateMutability":"view"},{"type":"function","name":"cancelOrder","inputs":[{"name":"index","type":"uint256","internalType":"uint256"}],"outputs":[],"stateMutability":"nonpayable"},{"type":"function","name":"checkOrderAvailability","inputs":[{"name":"_order","type":"tuple","internalType":"struct ZDPc.Order","components":[{"name":"t","type":"tuple","internalType":"struct ZDPc.OrderDetails","components":[{"name":"swapper","type":"address","internalType":"address"},{"name":"recipient","type":"address","internalType":"address"},{"name":"tokenIn","type":"address","internalType":"address"},{"name":"tokenOut","type":"address","internalType":"address"},{"name":"exchangeRate","type":"uint256","internalType":"uint256"},{"name":"deadline","type":"uint256","internalType":"uint256"},{"name":"OrderIsExecuted","type":"bool","internalType":"bool"}]},{"name":"HOsF","type":"bytes16","internalType":"bytes16"},{"name":"HOsE","type":"bytes16","internalType":"bytes16"}]}],"outputs":[{"name":"","type":"bool","internalType":"bool"}],"stateMutability":"view"},{"type":"function","name":"depositForGasFee","inputs":[{"name":"swapper","type":"address","internalType":"address"}],"outputs":[],"stateMutability":"payable"},{"type":"function","name":"gasfee","inputs":[{"name":"","type":"address","internalType":"address"}],"outputs":[{"name":"","type":"uint256","internalType":"uint256"}],"stateMutability":"view"},{"type":"function","name":"orderbook","inputs":[{"name":"","type":"address","internalType":"address"},{"name":"","type":"uint256","internalType":"uint256"}],"outputs":[{"name":"t","type":"tuple","internalType":"struct ZDPc.OrderDetails","components":[{"name":"swapper","type":"address","internalType":"address"},{"name":"recipient","type":"address","internalType":"address"},{"name":"tokenIn","type":"address","internalType":"address"},{"name":"tokenOut","type":"address","internalType":"address"},{"name":"exchangeRate","type":"uint256","internalType":"uint256"},{"name":"deadline","type":"uint256","internalType":"uint256"},{"name":"OrderIsExecuted","type":"bool","internalType":"bool"}]},{"name":"HOsF","type":"bytes16","internalType":"bytes16"},{"name":"HOsE","type":"bytes16","internalType":"bytes16"}],"stateMutability":"view"},{"type":"function","name":"owner","inputs":[],"outputs":[{"name":"","type":"address","internalType":"address"}],"stateMutability":"view"},{"type":"function","name":"pendingOwner","inputs":[],"outputs":[{"name":"","type":"address","internalType":"address"}],"stateMutability":"view"},{"type":"function","name":"renounceOwnership","inputs":[],"outputs":[],"stateMutability":"nonpayable"},{"type":"function","name":"router","inputs":[],"outputs":[{"name":"","type":"address","internalType":"contract ISwapRouter"}],"stateMutability":"view"},{"type":"function","name":"setAgent","inputs":[{"name":"_agent","type":"address","internalType":"address"}],"outputs":[],"stateMutability":"nonpayable"},{"type":"function","name":"setRouter","inputs":[{"name":"_router","type":"address","internalType":"address"}],"outputs":[],"stateMutability":"nonpayable"},{"type":"function","name":"setVerifier","inputs":[{"name":"_verifier","type":"address","internalType":"address"}],"outputs":[],"stateMutability":"nonpayable"},{"type":"function","name":"swapForward","inputs":[{"name":"_proofA","type":"uint256[2]","internalType":"uint256[2]"},{"name":"_proofB","type":"uint256[2][2]","internalType":"uint256[2][2]"},{"name":"_proofC","type":"uint256[2]","internalType":"uint256[2]"},{"name":"swapper","type":"address","internalType":"address"},{"name":"a0e","type":"uint256","internalType":"uint256"},{"name":"a1m","type":"uint256","internalType":"uint256"},{"name":"index","type":"uint256","internalType":"uint256"},{"name":"_gasFee","type":"uint256","internalType":"uint256"},{"name":"_type","type":"uint8","internalType":"enum ZDPc.OrderType"}],"outputs":[],"stateMutability":"payable"},{"type":"function","name":"transferOwnership","inputs":[{"name":"newOwner","type":"address","internalType":"address"}],"outputs":[],"stateMutability":"nonpayable"},{"type":"function","name":"verifier","inputs":[],"outputs":[{"name":"","type":"address","internalType":"contract Groth16Verifier"}],"stateMutability":"view"},{"type":"function","name":"weth","inputs":[],"outputs":[{"name":"","type":"address","internalType":"contract IWETH"}],"stateMutability":"view"},{"type":"function","name":"withdrawGasFee","inputs":[{"name":"amount","type":"uint256","internalType":"uint256"}],"outputs":[],"stateMutability":"nonpayable"},{"type":"function","name":"withdrawTakenFee","inputs":[],"outputs":[],"stateMutability":"nonpayable"},{"type":"event","name":"AgentChanged","inputs":[{"name":"oldAgent","type":"address","indexed":true,"internalType":"address"},{"name":"newAgent","type":"address","indexed":true,"internalType":"address"}],"anonymous":false},{"type":"event","name":"FeeDeposit","inputs":[{"name":"swapper","type":"address","indexed":true,"internalType":"address"},{"name":"fee","type":"uint256","indexed":true,"internalType":"uint256"}],"anonymous":false},{"type":"event","name":"FeeTaken","inputs":[{"name":"swapper","type":"address","indexed":true,"internalType":"address"},{"name":"fee","type":"uint256","indexed":true,"internalType":"uint256"}],"anonymous":false},{"type":"event","name":"FeeWithdrawn","inputs":[{"name":"swapper","type":"address","indexed":true,"internalType":"address"},{"name":"fee","type":"uint256","indexed":true,"internalType":"uint256"}],"anonymous":false},{"type":"event","name":"OrderCancelled","inputs":[{"name":"swapper","type":"address","indexed":false,"internalType":"address"},{"name":"index","type":"uint256","indexed":true,"internalType":"uint256"},{"name":"tokenIn","type":"address","indexed":false,"internalType":"address"},{"name":"tokenOut","type":"address","indexed":false,"internalType":"address"},{"name":"exchangeRate","type":"uint256","indexed":false,"internalType":"uint256"},{"name":"deadline","type":"uint256","indexed":false,"internalType":"uint256"},{"name":"OrderIsExecuted","type":"bool","indexed":false,"internalType":"bool"}],"anonymous":false},{"type":"event","name":"OrderExecuted","inputs":[{"name":"swapper","type":"address","indexed":false,"internalType":"address"},{"name":"index","type":"uint256","indexed":true,"internalType":"uint256"},{"name":"tokenIn","type":"address","indexed":false,"internalType":"address"},{"name":"tokenOut","type":"address","indexed":false,"internalType":"address"},{"name":"exchangeRate","type":"uint256","indexed":false,"internalType":"uint256"},{"name":"deadline","type":"uint256","indexed":false,"internalType":"uint256"},{"name":"OrderIsExecuted","type":"bool","indexed":false,"internalType":"bool"}],"anonymous":false},{"type":"event","name":"OrderStored","inputs":[{"name":"swapper","type":"address","indexed":true,"internalType":"address"},{"name":"index","type":"uint256","indexed":true,"internalType":"uint256"},{"name":"tokenIn","type":"address","indexed":false,"internalType":"address"},{"name":"tokenOut","type":"address","indexed":false,"internalType":"address"},{"name":"exchangeRate","type":"uint256","indexed":false,"internalType":"uint256"},{"name":"deadline","type":"uint256","indexed":false,"internalType":"uint256"},{"name":"OrderIsExecuted","type":"bool","indexed":false,"internalType":"bool"}],"anonymous":false},{"type":"event","name":"OwnershipTransferStarted","inputs":[{"name":"previousOwner","type":"address","indexed":true,"internalType":"address"},{"name":"newOwner","type":"address","indexed":true,"internalType":"address"}],"anonymous":false},{"type":"event","name":"OwnershipTransferred","inputs":[{"name":"previousOwner","type":"address","indexed":true,"internalType":"address"},{"name":"newOwner","type":"address","indexed":true,"internalType":"address"}],"anonymous":false},{"type":"event","name":"RouterChanged","inputs":[{"name":"oldRouter","type":"address","indexed":true,"internalType":"address"},{"name":"newRouter","type":"address","indexed":true,"internalType":"address"}],"anonymous":false},{"type":"event","name":"TakenFeeWithdrawn","inputs":[{"name":"owner","type":"address","indexed":true,"internalType":"address"},{"name":"fee","type":"uint256","indexed":true,"internalType":"uint256"}],"anonymous":false},{"type":"event","name":"VerifierChanged","inputs":[{"name":"oldVerifier","type":"address","indexed":true,"internalType":"address"},{"name":"newVerifier","type":"address","indexed":true,"internalType":"address"}],"anonymous":false},{"type":"error","name":"AddressEmptyCode","inputs":[{"name":"target","type":"address","internalType":"address"}]},{"type":"error","name":"AddressInsufficientBalance","inputs":[{"name":"account","type":"address","internalType":"address"}]},{"type":"error","name":"FailedInnerCall","inputs":[]},{"type":"error","name":"OwnableInvalidOwner","inputs":[{"name":"owner","type":"address","internalType":"address"}]},{"type":"error","name":"OwnableUnauthorizedAccount","inputs":[{"name":"account","type":"address","internalType":"address"}]},{"type":"error","name":"ReentrancyGuardReentrantCall","inputs":[]},{"type":"error","name":"SafeERC20FailedOperation","inputs":[{"name":"token","type":"address","internalType":"address"}]}],"bytecode":{"object":"0x608060405234801561001057600080fd5b5060405161281b38038061281b83398101604081905261002f9161017b565b806001600160a01b03811661005e57604051631e4fbdf760e01b81526000600482015260240160405180910390fd5b610067816100fa565b5060016002556001600160a01b03851661008057600080fd5b6001600160a01b03841661009357600080fd5b6001600160a01b0382166100a657600080fd5b50600380546001600160a01b039586166001600160a01b03199182161790915560048054948616948216949094179093556005805492851692841692909217909155600680549190931691161790556101f0565b600180546001600160a01b031916905561011381610116565b50565b600080546001600160a01b038381166001600160a01b0319831681178455604051919092169283917f8be0079c531659141344cd1fd0a4f28419497f9722a3daafe3b4186f6b6457e09190a35050565b6001600160a01b038116811461011357600080fd5b600080600080600060a0868803121561019357600080fd5b855161019e81610166565b60208701519095506101af81610166565b60408701519094506101c081610166565b60608701519093506101d181610166565b60808701519092506101e281610166565b809150509295509295909350565b61261c806101ff6000396000f3fe60806040526004361061012a5760003560e01c806379ba5097116100ab578063c7d0862d1161006f578063c7d0862d1461030c578063d617565c146103ac578063e30c3978146103dc578063f2fde38b146103fa578063f5ff5c761461041a578063f887ea401461043a57600080fd5b806379ba50971461025e5780638abfcba3146102735780638da5cb5b146102ae578063bcf685ed146102cc578063c0d78655146102ec57600080fd5b8063514fcac7116100f2578063514fcac7146101e15780635437988d1461020157806356ab9955146102215780636b5da86714610236578063715018a61461024957600080fd5b806319c0f1ce1461012f5780632b7ac3f3146101515780633c1889271461018e5780633fc8cef3146101ae578063458f9a86146101ce575b600080fd5b34801561013b57600080fd5b5061014f61014a36600461206f565b61045a565b005b34801561015d57600080fd5b50600654610171906001600160a01b031681565b6040516001600160a01b0390911681526020015b60405180910390f35b34801561019a57600080fd5b5061014f6101a9366004612132565b6105b4565b3480156101ba57600080fd5b50600554610171906001600160a01b031681565b61014f6101dc366004612211565b6106f3565b3480156101ed57600080fd5b5061014f6101fc36600461206f565b611032565b34801561020d57600080fd5b5061014f61021c3660046122b3565b611534565b34801561022d57600080fd5b5061014f61158e565b61014f6102443660046122b3565b6116ff565b34801561025557600080fd5b5061014f61180b565b34801561026a57600080fd5b5061014f61181f565b34801561027f57600080fd5b506102a061028e3660046122b3565b60086020526000908152604090205481565b604051908152602001610185565b3480156102ba57600080fd5b506000546001600160a01b0316610171565b3480156102d857600080fd5b5061014f6102e73660046122b3565b611860565b3480156102f857600080fd5b5061014f6103073660046122b3565b6118ba565b34801561031857600080fd5b5061032c6103273660046122ce565b611914565b6040516101859392919083516001600160a01b039081168252602080860151821690830152604080860151821690830152606080860151909116908201526080808501519082015260a0808501519082015260c0938401511515938101939093526001600160801b031991821660e0840152166101008201526101200190565b3480156103b857600080fd5b506103cc6103c7366004612132565b6119c6565b6040519015158152602001610185565b3480156103e857600080fd5b506001546001600160a01b0316610171565b34801561040657600080fd5b5061014f6104153660046122b3565b611bb7565b34801561042657600080fd5b50600354610171906001600160a01b031681565b34801561044657600080fd5b50600454610171906001600160a01b031681565b610462611c28565b6000811161046f57600080fd5b336000908152600860205260409020548111156104cb5760405162461bcd60e51b81526020600482015260156024820152744e6f20656e6f7567682066656520746f2074616b6560581b60448201526064015b60405180910390fd5b33600090815260086020526040812080548392906104ea90849061230e565b9091555050604051600090339083908381818185875af1925050503d8060008114610531576040519150601f19603f3d011682016040523d82523d6000602084013e610536565b606091505b50509050806105795760405162461bcd60e51b815260206004820152600f60248201526e1d1c985b9cd9995c8819985a5b1959608a1b60448201526064016104c2565b604051829033907f78473f3f373f7673597f4f0fa5873cb4d375fea6d4339ad6b56dbd411513cb3f90600090a3506105b16001600255565b50565b8051516001600160a01b03908116600090815260076020818152604080842054865151861685528185208054600180820183559187529584902088518051600890980290910180549789166001600160a01b0319988916178155818601519281018054938a169389169390931790925580840151600283018054918a169189168217905560608083015160038501805491909b16991689179099556080808301516004850181905560a0808501516005870181905560c09095015160068701805491151560ff1990921682179055898e0151898f0151851c600160801b0290851c1796909a019590955586519283529682019890985293840194909452958201929092529283019190915291829133917f826fc39d393249494f77103f254d6f9898501dd89e65f6c040ebbf359bcb7625910160405180910390a35050565b6003546001600160a01b031633146107575760405162461bcd60e51b815260206004820152602160248201527f6f6e6c79206167656e742063616e2063616c6c20746869732066756e6374696f6044820152603760f91b60648201526084016104c2565b6001600160a01b038616600090815260076020526040812080548590811061078157610781612321565b60009182526020918290206040805161014081018252600890930290910180546001600160a01b03908116606085019081526001830154821660808087018290526002850154841660a08801819052600386015490941660c08801819052600486015460e08901526005860154610100890152600686015460ff1615156101208901529287526007909401546001600160801b031981861b811698880198909852600160801b900490931b9095169284019290925291935090918761084e8a670de0b6b3a7640000612337565b610858919061234e565b845160800151111561089f5760405162461bcd60e51b815260206004820152601060248201526f6261642065786368616e67655261746560801b60448201526064016104c2565b835160c00151156108c25760405162461bcd60e51b81526004016104c290612370565b835160a001514211156109075760405162461bcd60e51b815260206004820152600d60248201526c1bdc99195c88195e1c1a5c9959609a1b60448201526064016104c2565b61090f612051565b602085015160801c8160006020020152604085015160801c816001602002015289816002602002015288816003602002018181525050600660009054906101000a90046001600160a01b03166001600160a01b0316635fe8c13b8f8f8f856040518563ffffffff1660e01b815260040161098c949392919061239a565b602060405180830381865afa1580156109a9573d6000803e3d6000fd5b505050506040513d601f19601f820116820180604052508101906109cd919061240c565b610a0e5760405162461bcd60e51b8152602060048201526012602482015271141c9bdbd9881a5cc81b9bdd081d985b1a5960721b60448201526064016104c2565b6001600160a01b038316610bbe57610a268a88612429565b8551516001600160a01b03166000908152600860205260409020541015610a8f5760405162461bcd60e51b815260206004820152601860248201527f696e73756666696369656e74206665652062616c616e6365000000000000000060448201526064016104c2565b8451516001600160a01b0316600090815260086020526040812080548c9290610ab990849061230e565b909155505060055460408051630d0e30db60e41b815290516001600160a01b039092169163d0e30db0918d91600480830192600092919082900301818588803b158015610b0557600080fd5b505af1158015610b19573d6000803e3d6000fd5b50506005546004805460405163095ea7b360e01b81526001600160a01b03938416965063095ea7b39550610b6794509216918f91016001600160a01b03929092168252602082015260400190565b6020604051808303816000875af1158015610b86573d6000803e3d6000fd5b505050506040513d601f19601f82011682018060405250810190610baa919061240c565b506005546001600160a01b03169250610c4e565b610bd36001600160a01b0384168c308d611c50565b6004805460405163095ea7b360e01b81526001600160a01b0391821692810192909252602482018c905284169063095ea7b3906044016020604051808303816000875af1158015610c28573d6000803e3d6000fd5b505050506040513d601f19601f82011682018060405250810190610c4c919061240c565b505b6001600160a01b038216610c6b576005546001600160a01b031691505b6000866005811115610c7f57610c7f61243c565b1480610c9c57506001866005811115610c9a57610c9a61243c565b145b15610d645760408051610100810182526001600160a01b0380861682528481166020830152610bb8828401528681166060830152875160a090810151608084015282018d905260c082018c9052600060e083015260048054935163414bf38960e01b815292939091169163414bf389918e91610d1a91869101612452565b60206040518083038185885af1158015610d38573d6000803e3d6000fd5b50505050506040513d601f19601f82011682018060405250810190610d5d91906124cf565b5050610f6a565b6002866005811115610d7857610d7861243c565b1480610d9557506003866005811115610d9357610d9361243c565b145b15610e545760408051610100810182526001600160a01b0380861682528481166020830152610bb8828401528681166060830152875160a090810151608084015282018d905260c082018c9052600060e083015260048054935163414bf38960e01b815292939091169163414bf38991610e1191859101612452565b6020604051808303816000875af1158015610e30573d6000803e3d6000fd5b505050506040513d601f19601f82011682018060405250810190610d5d91906124cf565b6004866005811115610e6857610e6861243c565b1480610e8557506005866005811115610e8357610e8361243c565b145b15610f6a576040805160a08082018352606086811b6bffffffffffffffffffffffff1990811660c085015261017760eb1b60d485015286821b1660d7840152835160cb81850301815260eb8401855283526001600160a01b0388811660208501528951909201518385015282018d9052608082018c905260048054935163c04b8d5960e01b815292939091169163c04b8d5991610f249185910161250c565b6020604051808303816000875af1158015610f43573d6000803e3d6000fd5b505050506040513d601f19601f82011682018060405250810190610f6791906124cf565b50505b6001600160a01b038b1660009081526007602052604090208054600191908a908110610f9857610f98612321565b60009182526020909120600890910201600601805460ff1916911515919091179055845151610fc79088611cb0565b845180516040808301516060840151608085015160a086015160c09096015193518e967ff235922b876688d636d7f228c123359235291c29677d901bee94c77f061f42699661101a96909594939261257b565b60405180910390a25050505050505050505050505050565b33600090815260076020526040902080548290811061105357611053612321565b600091825260209091206006600890920201015460ff16156110875760405162461bcd60e51b81526004016104c290612370565b3360009081526007602052604081208054839081106110a8576110a8612321565b60009182526020909120600160089092020101546001600160a01b0316036111125760405162461bcd60e51b815260206004820152601860248201527f726563697069656e7420646f6573206e6f74206578697374000000000000000060448201526064016104c2565b60408051610140810182526000606082018181526080830182905260a0830182905260c0830182905260e083018290526101008301829052610120830182905282526020808301829052828401829052338252600790529190912080549061117b60018361230e565b8154811061118b5761118b612321565b600091825260208083206040805161014081018252600890940290910180546001600160a01b0390811660608601908152600183015482166080808801919091526002840154831660a0880152600384015490921660c0870152600483015460e08701526005830154610100870152600683015460ff16151561012087015285526007918201546001600160801b031981831b811687870152600160801b90910490911b16848301523385529091529091208054919350908490811061125357611253612321565b600091825260208083203384526007909152604090922060089091029091019061127e60018461230e565b8154811061128e5761128e612321565b6000918252602080832084546008939093020180546001600160a01b039384166001600160a01b0319918216178255600180870154908301805491861691831691909117905560028087015490830180549186169183169190911790556003808701549083018054919095169116179092556004808501549083015560058085015490830155600680850154908301805460ff191660ff90921615159190911790556007938401805492850180546001600160801b0319166fffffffffffffffffffffffffffffffff94851690811782559154600160801b9081900490941690930217909155338252919091526040902080548391908590811061139457611394612321565b600091825260208083208451805160089490940290910180546001600160a01b03199081166001600160a01b03958616178255828401516001830180548316918716919091179055604080840151600284018054841691881691909117905560608401516003840180549093169616959095179055608080830151600483015560a0830151600583015560c09092015160068201805460ff1916911515919091179055858301519584015195821c600160801b9690921c9590950217600794850155338352929092522080548061146d5761146d6125b4565b60008281526020812060086000199093019283020180546001600160a01b0319908116825560018201805482169055600282018054821690556003820180549091169055600481018290556005810182905560068101805460ff1916905560070155905581516040808201516060830151608084015160a085015160c090950151935188957f33908de3197827f2ef40153d9c3d3ea8c493ef3137279ee71e8acbd49982310495611527953395909490939092919061257b565b60405180910390a2505050565b61153c611e18565b600680546001600160a01b038381166001600160a01b0319831681179093556040519116919082907f0ddda8be1021ab00f63727c5c5504ad96b163269770a3fe8ac3dd0bcb40208df90600090a35050565b611596611e18565b6000600860006115ae6000546001600160a01b031690565b6001600160a01b03166001600160a01b031681526020019081526020016000205490506000600860006115e96000546001600160a01b031690565b6001600160a01b03166001600160a01b031681526020019081526020016000208190555060006116216000546001600160a01b031690565b6001600160a01b03168260405160006040518083038185875af1925050503d806000811461166b576040519150601f19603f3d011682016040523d82523d6000602084013e611670565b606091505b50509050806116b35760405162461bcd60e51b815260206004820152600f60248201526e1d1c985b9cd9995c8819985a5b1959608a1b60448201526064016104c2565b816116c66000546001600160a01b031690565b6001600160a01b03167f6b18e5ec1eb85e65aec1256ffdeead20d0d855853dfa10c96d4144d9310cf5ec60405160405180910390a35050565b6000341161174f5760405162461bcd60e51b815260206004820152601e60248201527f6465706f736974206d757374206265206e6f6e2d7a65726f2076616c7565000060448201526064016104c2565b6001600160a01b0381166117a55760405162461bcd60e51b815260206004820181905260248201527f73776170706572206d757374206265206e6f6e2d7a65726f206164647265737360448201526064016104c2565b6001600160a01b038116600090815260086020526040812080543492906117cd908490612429565b909155505060405134906001600160a01b038316907fa8491ef03ac2868e696ed75957d04a1175eb88946dbc13ee05e75040c8db91d990600090a350565b611813611e18565b61181d6000611e45565b565b60015433906001600160a01b031681146118575760405163118cdaa760e01b81526001600160a01b03821660048201526024016104c2565b6105b181611e45565b611868611e18565b600380546001600160a01b038381166001600160a01b0319831681179093556040519116919082907fb21f1bf0d206b43eb02be4f423c2788a95affbda226125eaecabe3def8ba5c4290600090a35050565b6118c2611e18565b600480546001600160a01b038381166001600160a01b0319831681179093556040519116919082907fc736654a613824c69968e0ec25ac1a428ccd49e15c28e97b5dfd2c6059757e2a90600090a35050565b6007602052816000526040600020818154811061193057600080fd5b60009182526020918290206040805160e081018252600890930290910180546001600160a01b03908116845260018201548116948401949094526002810154841691830191909152600381015490921660608201526004820154608080830191909152600583015460a0830152600683015460ff16151560c083015260079092015490935080821b9250600160801b9004901b83565b805160c00151600090156119ec5760405162461bcd60e51b81526004016104c290612370565b815160a00151421115611a315760405162461bcd60e51b815260206004820152600d60248201526c1bdc99195c88195e1c1a5c9959609a1b60448201526064016104c2565b815160608101516040909101516001600160a01b03918216911603611a8e5760405162461bcd60e51b81526020600482015260136024820152721d1bdad95b925b880f4f481d1bdad95b93dd5d606a1b60448201526064016104c2565b8151602001516001600160a01b0316611af45760405162461bcd60e51b815260206004820152602260248201527f726563697069656e74206d757374206265206e6f6e2d7a65726f206164647265604482015261737360f01b60648201526084016104c2565b815160800151600003611b555760405162461bcd60e51b815260206004820152602360248201527f65786368616e676552617465206d757374206265206e6f6e2d7a65726f2076616044820152626c756560e81b60648201526084016104c2565b8151516001600160a01b03163314611baf5760405162461bcd60e51b815260206004820152601c60248201527f6f6e6c7920737761707065722063616e2073746f7265206f726465720000000060448201526064016104c2565b506001919050565b611bbf611e18565b600180546001600160a01b0383166001600160a01b03199091168117909155611bf06000546001600160a01b031690565b6001600160a01b03167f38d16b8cac22d99fc7c124b9cd0de2d3fa1faef420bfe791d8c362d765e2270060405160405180910390a350565b6002805403611c4a57604051633ee5aeb560e01b815260040160405180910390fd5b60028055565b604080516001600160a01b0385811660248301528416604482015260648082018490528251808303909101815260849091019091526020810180516001600160e01b03166323b872dd60e01b179052611caa908590611e5e565b50505050565b67010a741a46278000811115611cfd5760405162461bcd60e51b81526020600482015260126024820152710cec2e68ccaca40d2e640e8dede40d0d2ced60731b60448201526064016104c2565b6001600160a01b038216600090815260086020526040902054811115611d655760405162461bcd60e51b815260206004820181905260248201527f646f6573206e6f74206861766520656e6f7567682066656520746f2074616b6560448201526064016104c2565b6001600160a01b03821660009081526008602052604081208054839290611d8d90849061230e565b9091555081905060086000611daa6000546001600160a01b031690565b6001600160a01b03166001600160a01b031681526020019081526020016000206000828254611dd99190612429565b909155505060405181906001600160a01b038416907f1b02d16d3c4c6fce038de5403c8352eb1eb62bc6915b6848683de52a24a723f890600090a35050565b6000546001600160a01b0316331461181d5760405163118cdaa760e01b81523360048201526024016104c2565b600180546001600160a01b03191690556105b181611ec6565b6000611e736001600160a01b03841683611f16565b90508051600014158015611e98575080806020019051810190611e96919061240c565b155b15611ec157604051635274afe760e01b81526001600160a01b03841660048201526024016104c2565b505050565b600080546001600160a01b038381166001600160a01b0319831681178455604051919092169283917f8be0079c531659141344cd1fd0a4f28419497f9722a3daafe3b4186f6b6457e09190a35050565b6060611f2483836000611f2d565b90505b92915050565b606081471015611f525760405163cd78605960e01b81523060048201526024016104c2565b600080856001600160a01b03168486604051611f6e91906125ca565b60006040518083038185875af1925050503d8060008114611fab576040519150601f19603f3d011682016040523d82523d6000602084013e611fb0565b606091505b5091509150611fc0868383611fcc565b925050505b9392505050565b606082611fe157611fdc82612028565b611fc5565b8151158015611ff857506001600160a01b0384163b155b1561202157604051639996b31560e01b81526001600160a01b03851660048201526024016104c2565b5080611fc5565b8051156120385780518082602001fd5b604051630a12f52160e11b815260040160405180910390fd5b60405180608001604052806004906020820280368337509192915050565b60006020828403121561208157600080fd5b5035919050565b6040516060810167ffffffffffffffff811182821017156120b957634e487b7160e01b600052604160045260246000fd5b60405290565b60405160e0810167ffffffffffffffff811182821017156120b957634e487b7160e01b600052604160045260246000fd5b80356001600160a01b038116811461210757600080fd5b919050565b80151581146105b157600080fd5b80356001600160801b03198116811461210757600080fd5b60008183036101208112801561214757600080fd5b506000612152612088565b60e083121561215f578182fd5b6121676120bf565b9250612172856120f0565b8352612180602086016120f0565b6020840152612191604086016120f0565b60408401526121a2606086016120f0565b60608401526080858101359084015260a0808601359084015260c085013591506121cb8261210c565b8160c08401528281526121e060e0860161211a565b60208201526121f2610100860161211a565b604082015295945050505050565b8060408101831015611f2757600080fd5b60008060008060008060008060006101c08a8c03121561223057600080fd5b61223a8b8b612200565b985060c08a018b81111561224d57600080fd5b60408b01985061225d8c82612200565b97505061226d6101008b016120f0565b95506101208a013594506101408a013593506101608a013592506101808a013591506101a08a0135600681106122a257600080fd5b809150509295985092959850929598565b6000602082840312156122c557600080fd5b611f24826120f0565b600080604083850312156122e157600080fd5b6122ea836120f0565b946020939093013593505050565b634e487b7160e01b600052601160045260246000fd5b81810381811115611f2757611f276122f8565b634e487b7160e01b600052603260045260246000fd5b8082028115828204841417611f2757611f276122f8565b60008261236b57634e487b7160e01b600052601260045260246000fd5b500490565b60208082526010908201526f185b1c9958591e48195e1958dd5d195960821b604082015260600190565b61018081016040868337604082018560005b60028110156123cd57604082843760409283019291909101906001016123ac565b50505060408460c084013761010082018360005b60048110156124005781518352602092830192909101906001016123e1565b50505095945050505050565b60006020828403121561241e57600080fd5b8151611fc58161210c565b80820180821115611f2757611f276122f8565b634e487b7160e01b600052602160045260246000fd5b81516001600160a01b03908116825260208084015182169083015260408084015162ffffff169083015260608084015191821690830152610100820190506080830151608083015260a083015160a083015260c083015160c083015260e08301516124c860e08401826001600160a01b03169052565b5092915050565b6000602082840312156124e157600080fd5b5051919050565b60005b838110156125035781810151838201526020016124eb565b50506000910152565b602081526000825160a0602084015280518060c08501526125348160e08601602085016124e8565b60018060a01b0360208601511660408501526040850151606085015260608501516080850152608085015160a085015260e0601f19601f8301168501019250505092915050565b6001600160a01b03968716815294861660208601529290941660408401526060830152608082019290925290151560a082015260c00190565b634e487b7160e01b600052603160045260246000fd5b600082516125dc8184602087016124e8565b919091019291505056fea2646970667358221220724267267afaae3bd10c02acd2c7113e00539327b6a4efb966293cf8e389913b64736f6c634300081c0033","linkReferences":{}},"methodIdentifiers":{"acceptOwnership()":"79ba5097","addPendingOrder(((address,address,address,address,uint256,uint256,bool),bytes16,bytes16))":"3c188927","agent()":"f5ff5c76","cancelOrder(uint256)":"514fcac7","checkOrderAvailability(((address,address,address,address,uint256,uint256,bool),bytes16,bytes16))":"d617565c","depositForGasFee(address)":"6b5da867","gasfee(address)":"8abfcba3","orderbook(address,uint256)":"c7d0862d","owner()":"8da5cb5b","pendingOwner()":"e30c3978","renounceOwnership()":"715018a6","router()":"f887ea40","setAgent(address)":"bcf685ed","setRouter(address)":"c0d78655","setVerifier(address)":"5437988d","swapForward(uint256[2],uint256[2][2],uint256[2],address,uint256,uint256,uint256,uint256,uint8)":"458f9a86","transferOwnership(address)":"f2fde38b","verifier()":"2b7ac3f3","weth()":"3fc8cef3","withdrawGasFee(uint256)":"19c0f1ce","withdrawTakenFee()":"56ab9955"},"id":11}