{"abi":[{"type":"constructor","inputs":[{"name":"_agent","type":"address","internalType":"address"},{"name":"_router","type":"address","internalType":"address payable"},{"name":"_weth","type":"address","internalType":"address"},{"name":"_verifier","type":"address","internalType":"address"},{"name":"_owner","type":"address","internalType":"address"}],"stateMutability":"nonpayable"},{"type":"function","name":"acceptOwnership","inputs":[],"outputs":[],"stateMutability":"nonpayable"},{"type":"function","name":"addPendingOrder","inputs":[{"name":"_order","type":"tuple","internalType":"struct ZDPc.Order","components":[{"name":"t","type":"tuple","internalType":"struct ZDPc.OrderDetails","components":[{"name":"swapper","type":"address","internalType":"address"},{"name":"recipient","type":"address","internalType":"address"},{"name":"tokenIn","type":"address","internalType":"address"},{"name":"tokenOut","type":"address","internalType":"address"},{"name":"exchangeRate","type":"uint256","internalType":"uint256"},{"name":"deadline","type":"uint256","internalType":"uint256"},{"name":"OrderIsExecuted","type":"bool","internalType":"bool"}]},{"name":"HOsF","type":"bytes16","internalType":"bytes16"},{"name":"HOsE","type":"bytes16","internalType":"bytes16"}]}],"outputs":[],"stateMutability":"nonpayable"},{"type":"function","name":"agent","inputs":[],"outputs":[{"name":"","type":"address","internalType":"address"}],"stateMutability":"view"},{"type":"function","name":"cancelOrder","inputs":[{"name":"index","type":"uint256","internalType":"uint256"}],"outputs":[],"stateMutability":"nonpayable"},{"type":"function","name":"depositForGasFee","inputs":[{"name":"swapper","type":"address","internalType":"address"}],"outputs":[],"stateMutability":"payable"},{"type":"function","name":"gasfee","inputs":[{"name":"","type":"address","internalType":"address"}],"outputs":[{"name":"","type":"uint256","internalType":"uint256"}],"stateMutability":"view"},{"type":"function","name":"orderbook","inputs":[{"name":"","type":"address","internalType":"address"},{"name":"","type":"uint256","internalType":"uint256"}],"outputs":[{"name":"t","type":"tuple","internalType":"struct ZDPc.OrderDetails","components":[{"name":"swapper","type":"address","internalType":"address"},{"name":"recipient","type":"address","internalType":"address"},{"name":"tokenIn","type":"address","internalType":"address"},{"name":"tokenOut","type":"address","internalType":"address"},{"name":"exchangeRate","type":"uint256","internalType":"uint256"},{"name":"deadline","type":"uint256","internalType":"uint256"},{"name":"OrderIsExecuted","type":"bool","internalType":"bool"}]},{"name":"HOsF","type":"bytes16","internalType":"bytes16"},{"name":"HOsE","type":"bytes16","internalType":"bytes16"}],"stateMutability":"view"},{"type":"function","name":"owner","inputs":[],"outputs":[{"name":"","type":"address","internalType":"address"}],"stateMutability":"view"},{"type":"function","name":"pendingOwner","inputs":[],"outputs":[{"name":"","type":"address","internalType":"address"}],"stateMutability":"view"},{"type":"function","name":"renounceOwnership","inputs":[],"outputs":[],"stateMutability":"nonpayable"},{"type":"function","name":"router","inputs":[],"outputs":[{"name":"","type":"address","internalType":"contract ISwapRouter"}],"stateMutability":"view"},{"type":"function","name":"setAgent","inputs":[{"name":"_agent","type":"address","internalType":"address"}],"outputs":[],"stateMutability":"nonpayable"},{"type":"function","name":"setRouter","inputs":[{"name":"_router","type":"address","internalType":"address"}],"outputs":[],"stateMutability":"nonpayable"},{"type":"function","name":"setVerifier","inputs":[{"name":"_verifier","type":"address","internalType":"address"}],"outputs":[],"stateMutability":"nonpayable"},{"type":"function","name":"swapForward","inputs":[{"name":"_proofA","type":"uint256[2]","internalType":"uint256[2]"},{"name":"_proofB","type":"uint256[2][2]","internalType":"uint256[2][2]"},{"name":"_proofC","type":"uint256[2]","internalType":"uint256[2]"},{"name":"swapper","type":"address","internalType":"address"},{"name":"index","type":"uint256","internalType":"uint256"},{"name":"a0e","type":"uint256","internalType":"uint256"},{"name":"a1m","type":"uint256","internalType":"uint256"},{"name":"_gasFee","type":"uint256","internalType":"uint256"},{"name":"_type","type":"uint8","internalType":"enum ZDPc.OrderType"}],"outputs":[],"stateMutability":"payable"},{"type":"function","name":"transferOwnership","inputs":[{"name":"newOwner","type":"address","internalType":"address"}],"outputs":[],"stateMutability":"nonpayable"},{"type":"function","name":"verifier","inputs":[],"outputs":[{"name":"","type":"address","internalType":"contract Groth16Verifier"}],"stateMutability":"view"},{"type":"function","name":"weth","inputs":[],"outputs":[{"name":"","type":"address","internalType":"contract IWETH"}],"stateMutability":"view"},{"type":"function","name":"withdrawGasFee","inputs":[{"name":"amount","type":"uint256","internalType":"uint256"}],"outputs":[],"stateMutability":"nonpayable"},{"type":"function","name":"withdrawTakenFee","inputs":[],"outputs":[],"stateMutability":"nonpayable"},{"type":"event","name":"AgentChanged","inputs":[{"name":"oldAgent","type":"address","indexed":true,"internalType":"address"},{"name":"newAgent","type":"address","indexed":true,"internalType":"address"}],"anonymous":false},{"type":"event","name":"FeeDeposit","inputs":[{"name":"swapper","type":"address","indexed":true,"internalType":"address"},{"name":"fee","type":"uint256","indexed":true,"internalType":"uint256"}],"anonymous":false},{"type":"event","name":"FeeTaken","inputs":[{"name":"swapper","type":"address","indexed":true,"internalType":"address"},{"name":"fee","type":"uint256","indexed":true,"internalType":"uint256"}],"anonymous":false},{"type":"event","name":"FeeWithdrawn","inputs":[{"name":"swapper","type":"address","indexed":true,"internalType":"address"},{"name":"fee","type":"uint256","indexed":true,"internalType":"uint256"}],"anonymous":false},{"type":"event","name":"OrderCancelled","inputs":[{"name":"swapper","type":"address","indexed":false,"internalType":"address"},{"name":"index","type":"uint256","indexed":true,"internalType":"uint256"},{"name":"tokenIn","type":"address","indexed":false,"internalType":"address"},{"name":"tokenOut","type":"address","indexed":false,"internalType":"address"},{"name":"exchangeRate","type":"uint256","indexed":false,"internalType":"uint256"},{"name":"deadline","type":"uint256","indexed":false,"internalType":"uint256"},{"name":"OrderIsExecuted","type":"bool","indexed":false,"internalType":"bool"}],"anonymous":false},{"type":"event","name":"OrderExecuted","inputs":[{"name":"swapper","type":"address","indexed":false,"internalType":"address"},{"name":"index","type":"uint256","indexed":true,"internalType":"uint256"},{"name":"tokenIn","type":"address","indexed":false,"internalType":"address"},{"name":"tokenOut","type":"address","indexed":false,"internalType":"address"},{"name":"exchangeRate","type":"uint256","indexed":false,"internalType":"uint256"},{"name":"deadline","type":"uint256","indexed":false,"internalType":"uint256"},{"name":"OrderIsExecuted","type":"bool","indexed":false,"internalType":"bool"}],"anonymous":false},{"type":"event","name":"OrderStored","inputs":[{"name":"swapper","type":"address","indexed":true,"internalType":"address"},{"name":"index","type":"uint256","indexed":true,"internalType":"uint256"},{"name":"tokenIn","type":"address","indexed":false,"internalType":"address"},{"name":"tokenOut","type":"address","indexed":false,"internalType":"address"},{"name":"exchangeRate","type":"uint256","indexed":false,"internalType":"uint256"},{"name":"deadline","type":"uint256","indexed":false,"internalType":"uint256"},{"name":"OrderIsExecuted","type":"bool","indexed":false,"internalType":"bool"}],"anonymous":false},{"type":"event","name":"OwnershipTransferStarted","inputs":[{"name":"previousOwner","type":"address","indexed":true,"internalType":"address"},{"name":"newOwner","type":"address","indexed":true,"internalType":"address"}],"anonymous":false},{"type":"event","name":"OwnershipTransferred","inputs":[{"name":"previousOwner","type":"address","indexed":true,"internalType":"address"},{"name":"newOwner","type":"address","indexed":true,"internalType":"address"}],"anonymous":false},{"type":"event","name":"RouterChanged","inputs":[{"name":"oldRouter","type":"address","indexed":true,"internalType":"address"},{"name":"newRouter","type":"address","indexed":true,"internalType":"address"}],"anonymous":false},{"type":"event","name":"TakenFeeWithdrawn","inputs":[{"name":"owner","type":"address","indexed":true,"internalType":"address"},{"name":"fee","type":"uint256","indexed":true,"internalType":"uint256"}],"anonymous":false},{"type":"event","name":"VerifierChanged","inputs":[{"name":"oldVerifier","type":"address","indexed":true,"internalType":"address"},{"name":"newVerifier","type":"address","indexed":true,"internalType":"address"}],"anonymous":false},{"type":"error","name":"AddressEmptyCode","inputs":[{"name":"target","type":"address","internalType":"address"}]},{"type":"error","name":"AddressInsufficientBalance","inputs":[{"name":"account","type":"address","internalType":"address"}]},{"type":"error","name":"FailedInnerCall","inputs":[]},{"type":"error","name":"OwnableInvalidOwner","inputs":[{"name":"owner","type":"address","internalType":"address"}]},{"type":"error","name":"OwnableUnauthorizedAccount","inputs":[{"name":"account","type":"address","internalType":"address"}]},{"type":"error","name":"ReentrancyGuardReentrantCall","inputs":[]},{"type":"error","name":"SafeERC20FailedOperation","inputs":[{"name":"token","type":"address","internalType":"address"}]}],"bytecode":{"object":"0x608060405234801561001057600080fd5b5060405161283338038061283383398101604081905261002f9161017b565b806001600160a01b03811661005e57604051631e4fbdf760e01b81526000600482015260240160405180910390fd5b610067816100fa565b5060016002556001600160a01b03851661008057600080fd5b6001600160a01b03841661009357600080fd5b6001600160a01b0382166100a657600080fd5b50600380546001600160a01b039586166001600160a01b03199182161790915560048054948616948216949094179093556005805492851692841692909217909155600680549190931691161790556101f0565b600180546001600160a01b031916905561011381610116565b50565b600080546001600160a01b038381166001600160a01b0319831681178455604051919092169283917f8be0079c531659141344cd1fd0a4f28419497f9722a3daafe3b4186f6b6457e09190a35050565b6001600160a01b038116811461011357600080fd5b600080600080600060a0868803121561019357600080fd5b855161019e81610166565b60208701519095506101af81610166565b60408701519094506101c081610166565b60608701519093506101d181610166565b60808701519092506101e281610166565b809150509295509295909350565b612634806101ff6000396000f3fe60806040526004361061011f5760003560e01c806379ba5097116100a0578063c7d0862d11610064578063c7d0862d14610301578063e30c3978146103a1578063f2fde38b146103bf578063f5ff5c76146103df578063f887ea40146103ff57600080fd5b806379ba5097146102535780638abfcba3146102685780638da5cb5b146102a3578063bcf685ed146102c1578063c0d78655146102e157600080fd5b8063514fcac7116100e7578063514fcac7146101d65780635437988d146101f657806356ab9955146102165780636b5da8671461022b578063715018a61461023e57600080fd5b806319c0f1ce146101245780632b7ac3f3146101465780633c188927146101835780633fc8cef3146101a3578063458f9a86146101c3575b600080fd5b34801561013057600080fd5b5061014461013f3660046120b1565b61041f565b005b34801561015257600080fd5b50600654610166906001600160a01b031681565b6040516001600160a01b0390911681526020015b60405180910390f35b34801561018f57600080fd5b5061014461019e366004612174565b610579565b3480156101af57600080fd5b50600554610166906001600160a01b031681565b6101446101d1366004612253565b61070a565b3480156101e257600080fd5b506101446101f13660046120b1565b611075565b34801561020257600080fd5b506101446102113660046122f5565b61159a565b34801561022257600080fd5b506101446115f4565b6101446102393660046122f5565b611765565b34801561024a57600080fd5b50610144611871565b34801561025f57600080fd5b50610144611885565b34801561027457600080fd5b506102956102833660046122f5565b60086020526000908152604090205481565b60405190815260200161017a565b3480156102af57600080fd5b506000546001600160a01b0316610166565b3480156102cd57600080fd5b506101446102dc3660046122f5565b6118c6565b3480156102ed57600080fd5b506101446102fc3660046122f5565b611920565b34801561030d57600080fd5b5061032161031c366004612310565b61197a565b60405161017a9392919083516001600160a01b039081168252602080860151821690830152604080860151821690830152606080860151909116908201526080808501519082015260a0808501519082015260c0938401511515938101939093526001600160801b031991821660e0840152166101008201526101200190565b3480156103ad57600080fd5b506001546001600160a01b0316610166565b3480156103cb57600080fd5b506101446103da3660046122f5565b611a2c565b3480156103eb57600080fd5b50600354610166906001600160a01b031681565b34801561040b57600080fd5b50600454610166906001600160a01b031681565b610427611a9d565b6000811161043457600080fd5b336000908152600860205260409020548111156104905760405162461bcd60e51b81526020600482015260156024820152744e6f20656e6f7567682066656520746f2074616b6560581b60448201526064015b60405180910390fd5b33600090815260086020526040812080548392906104af908490612350565b9091555050604051600090339083908381818185875af1925050503d80600081146104f6576040519150601f19603f3d011682016040523d82523d6000602084013e6104fb565b606091505b505090508061053e5760405162461bcd60e51b815260206004820152600f60248201526e1d1c985b9cd9995c8819985a5b1959608a1b6044820152606401610487565b604051829033907f78473f3f373f7673597f4f0fa5873cb4d375fea6d4339ad6b56dbd411513cb3f90600090a3506105766001600255565b50565b61058281611ac5565b50805160c00151156105cb5760405162461bcd60e51b815260206004820152601260248201527118d85b9b9bdd08189948195e1958dd5d195960721b6044820152606401610487565b8051516001600160a01b03908116600090815260076020818152604080842054865151861685528185208054600180820183559187529584902088518051600890980290910180549789166001600160a01b0319988916178155818601519281018054938a169389169390931790925580840151600283018054918a169189168217905560608083015160038501805491909b16991689179099556080808301516004850181905560a0808501516005870181905560c09095015160068701805491151560ff1990921682179055898e0151898f0151851c600160801b0290851c1796909a019590955586519283529682019890985293840194909452958201929092529283019190915291829133917f826fc39d393249494f77103f254d6f9898501dd89e65f6c040ebbf359bcb7625910160405180910390a35050565b6003546001600160a01b0316331461076e5760405162461bcd60e51b815260206004820152602160248201527f6f6e6c79206167656e742063616e2063616c6c20746869732066756e6374696f6044820152603760f91b6064820152608401610487565b6001600160a01b038616600090815260076020526040812080548790811061079857610798612363565b60009182526020918290206040805161014081018252600890930290910180546001600160a01b03908116606085019081526001830154821660808087018290526002850154841660a08801819052600386015490941660c08801819052600486015460e08901526005860154610100890152600686015460ff1615156101208901529287526007909401546001600160801b031981861b811698880198909852600160801b900490931b9095169284019290925291935090918661086589670de0b6b3a7640000612379565b61086f9190612390565b84516080015111156108b65760405162461bcd60e51b815260206004820152601060248201526f6261642065786368616e67655261746560801b6044820152606401610487565b835160c00151156108fc5760405162461bcd60e51b815260206004820152601060248201526f185b1c9958591e48195e1958dd5d195960821b6044820152606401610487565b835160a001514211156109415760405162461bcd60e51b815260206004820152600d60248201526c1bdc99195c88195e1c1a5c9959609a1b6044820152606401610487565b610949612093565b602085015160801c8160006020020152604085015160801c816001602002015288816002602002015287816003602002018181525050600660009054906101000a90046001600160a01b03166001600160a01b0316635fe8c13b8f8f8f856040518563ffffffff1660e01b81526004016109c694939291906123b2565b602060405180830381865afa1580156109e3573d6000803e3d6000fd5b505050506040513d601f19601f82011682018060405250810190610a079190612424565b610a485760405162461bcd60e51b8152602060048201526012602482015271141c9bdbd9881a5cc81b9bdd081d985b1a5960721b6044820152606401610487565b6001600160a01b038316610bea57610a608988612441565b8551516001600160a01b03166000908152600860205260409020541015610ac95760405162461bcd60e51b815260206004820152601860248201527f696e73756666696369656e74206665652062616c616e636500000000000000006044820152606401610487565b8451516001600160a01b0316600090815260086020526040812080548b9290610af3908490612350565b909155505060055460408051630d0e30db60e41b815290516001600160a01b039092169163d0e30db0918c91600480830192600092919082900301818588803b158015610b3f57600080fd5b505af1158015610b53573d6000803e3d6000fd5b50506005546004805460405163095ea7b360e01b81526001600160a01b0391821692810192909252602482018f9052909116935063095ea7b3925060440190506020604051808303816000875af1158015610bb2573d6000803e3d6000fd5b505050506040513d601f19601f82011682018060405250810190610bd69190612424565b506005546001600160a01b03169250610c7a565b610bff6001600160a01b0384168c308c611c92565b6004805460405163095ea7b360e01b81526001600160a01b0391821692810192909252602482018b905284169063095ea7b3906044016020604051808303816000875af1158015610c54573d6000803e3d6000fd5b505050506040513d601f19601f82011682018060405250810190610c789190612424565b505b6001600160a01b038216610c97576005546001600160a01b031691505b6000866005811115610cab57610cab612454565b1480610cc857506001866005811115610cc657610cc6612454565b145b15610d905760408051610100810182526001600160a01b0380861682528481166020830152610bb8828401528681166060830152875160a090810151608084015282018c905260c082018b9052600060e083015260048054935163414bf38960e01b815292939091169163414bf389918d91610d469186910161246a565b60206040518083038185885af1158015610d64573d6000803e3d6000fd5b50505050506040513d601f19601f82011682018060405250810190610d8991906124e7565b5050610f96565b6002866005811115610da457610da4612454565b1480610dc157506003866005811115610dbf57610dbf612454565b145b15610e805760408051610100810182526001600160a01b0380861682528481166020830152610bb8828401528681166060830152875160a090810151608084015282018c905260c082018b9052600060e083015260048054935163414bf38960e01b815292939091169163414bf38991610e3d9185910161246a565b6020604051808303816000875af1158015610e5c573d6000803e3d6000fd5b505050506040513d601f19601f82011682018060405250810190610d8991906124e7565b6004866005811115610e9457610e94612454565b1480610eb157506005866005811115610eaf57610eaf612454565b145b15610f96576040805160a08082018352606086811b6bffffffffffffffffffffffff1990811660c085015261017760eb1b60d485015286821b1660d7840152835160cb81850301815260eb8401855283526001600160a01b0388811660208501528951909201518385015282018c9052608082018b905260048054935163c04b8d5960e01b815292939091169163c04b8d5991610f5091859101612524565b6020604051808303816000875af1158015610f6f573d6000803e3d6000fd5b505050506040513d601f19601f82011682018060405250810190610f9391906124e7565b50505b6001600160a01b038b1660009081526007602052604090208054600191908c908110610fc457610fc4612363565b60009182526020909120600890910201600601805460ff1916911515919091179055845151610ff39088611cf2565b897ff235922b876688d636d7f228c123359235291c29677d901bee94c77f061f42698660000151600001518760000151604001518860000151606001518960000151608001518a6000015160a001518b6000015160c0015160405161105d96959493929190612593565b60405180910390a25050505050505050505050505050565b33600090815260076020526040902080548290811061109657611096612363565b600091825260209091206006600890920201015460ff16156110ed5760405162461bcd60e51b815260206004820152601060248201526f185b1c9958591e48195e1958dd5d195960821b6044820152606401610487565b33600090815260076020526040812080548390811061110e5761110e612363565b60009182526020909120600160089092020101546001600160a01b0316036111785760405162461bcd60e51b815260206004820152601860248201527f726563697069656e7420646f6573206e6f7420657869737400000000000000006044820152606401610487565b60408051610140810182526000606082018181526080830182905260a0830182905260c0830182905260e08301829052610100830182905261012083018290528252602080830182905282840182905233825260079052919091208054906111e1600183612350565b815481106111f1576111f1612363565b600091825260208083206040805161014081018252600890940290910180546001600160a01b0390811660608601908152600183015482166080808801919091526002840154831660a0880152600384015490921660c0870152600483015460e08701526005830154610100870152600683015460ff16151561012087015285526007918201546001600160801b031981831b811687870152600160801b90910490911b1684830152338552909152909120805491935090849081106112b9576112b9612363565b60009182526020808320338452600790915260409092206008909102909101906112e4600184612350565b815481106112f4576112f4612363565b6000918252602080832084546008939093020180546001600160a01b039384166001600160a01b0319918216178255600180870154908301805491861691831691909117905560028087015490830180549186169183169190911790556003808701549083018054919095169116179092556004808501549083015560058085015490830155600680850154908301805460ff191660ff90921615159190911790556007938401805492850180546001600160801b0319166fffffffffffffffffffffffffffffffff94851690811782559154600160801b908190049094169093021790915533825291909152604090208054839190859081106113fa576113fa612363565b600091825260208083208451805160089490940290910180546001600160a01b03199081166001600160a01b03958616178255828401516001830180548316918716919091179055604080840151600284018054841691881691909117905560608401516003840180549093169616959095179055608080830151600483015560a0830151600583015560c09092015160068201805460ff1916911515919091179055858301519584015195821c600160801b9690921c959095021760079485015533835292909252208054806114d3576114d36125cc565b60008281526020812060086000199093019283020180546001600160a01b0319908116825560018201805482169055600282018054821690556003820180549091169055600481018290556005810182905560068101805460ff1916905560070155905581516040808201516060830151608084015160a085015160c090950151935188957f33908de3197827f2ef40153d9c3d3ea8c493ef3137279ee71e8acbd4998231049561158d9533959094909390929190612593565b60405180910390a2505050565b6115a2611e5a565b600680546001600160a01b038381166001600160a01b0319831681179093556040519116919082907f0ddda8be1021ab00f63727c5c5504ad96b163269770a3fe8ac3dd0bcb40208df90600090a35050565b6115fc611e5a565b6000600860006116146000546001600160a01b031690565b6001600160a01b03166001600160a01b0316815260200190815260200160002054905060006008600061164f6000546001600160a01b031690565b6001600160a01b03166001600160a01b031681526020019081526020016000208190555060006116876000546001600160a01b031690565b6001600160a01b03168260405160006040518083038185875af1925050503d80600081146116d1576040519150601f19603f3d011682016040523d82523d6000602084013e6116d6565b606091505b50509050806117195760405162461bcd60e51b815260206004820152600f60248201526e1d1c985b9cd9995c8819985a5b1959608a1b6044820152606401610487565b8161172c6000546001600160a01b031690565b6001600160a01b03167f6b18e5ec1eb85e65aec1256ffdeead20d0d855853dfa10c96d4144d9310cf5ec60405160405180910390a35050565b600034116117b55760405162461bcd60e51b815260206004820152601e60248201527f6465706f736974206d757374206265206e6f6e2d7a65726f2076616c756500006044820152606401610487565b6001600160a01b03811661180b5760405162461bcd60e51b815260206004820181905260248201527f73776170706572206d757374206265206e6f6e2d7a65726f20616464726573736044820152606401610487565b6001600160a01b03811660009081526008602052604081208054349290611833908490612441565b909155505060405134906001600160a01b038316907fa8491ef03ac2868e696ed75957d04a1175eb88946dbc13ee05e75040c8db91d990600090a350565b611879611e5a565b6118836000611e87565b565b60015433906001600160a01b031681146118bd5760405163118cdaa760e01b81526001600160a01b0382166004820152602401610487565b61057681611e87565b6118ce611e5a565b600380546001600160a01b038381166001600160a01b0319831681179093556040519116919082907fb21f1bf0d206b43eb02be4f423c2788a95affbda226125eaecabe3def8ba5c4290600090a35050565b611928611e5a565b600480546001600160a01b038381166001600160a01b0319831681179093556040519116919082907fc736654a613824c69968e0ec25ac1a428ccd49e15c28e97b5dfd2c6059757e2a90600090a35050565b6007602052816000526040600020818154811061199657600080fd5b60009182526020918290206040805160e081018252600890930290910180546001600160a01b03908116845260018201548116948401949094526002810154841691830191909152600381015490921660608201526004820154608080830191909152600583015460a0830152600683015460ff16151560c083015260079092015490935080821b9250600160801b9004901b83565b611a34611e5a565b600180546001600160a01b0383166001600160a01b03199091168117909155611a656000546001600160a01b031690565b6001600160a01b03167f38d16b8cac22d99fc7c124b9cd0de2d3fa1faef420bfe791d8c362d765e2270060405160405180910390a350565b6002805403611abf57604051633ee5aeb560e01b815260040160405180910390fd5b60028055565b805160a001516000904210611b0c5760405162461bcd60e51b815260206004820152600d60248201526c1bdc99195c88195e1c1a5c9959609a1b6044820152606401610487565b815160608101516040909101516001600160a01b03918216911603611b695760405162461bcd60e51b81526020600482015260136024820152721d1bdad95b925b880f4f481d1bdad95b93dd5d606a1b6044820152606401610487565b8151602001516001600160a01b0316611bcf5760405162461bcd60e51b815260206004820152602260248201527f726563697069656e74206d757374206265206e6f6e2d7a65726f206164647265604482015261737360f01b6064820152608401610487565b815160800151600003611c305760405162461bcd60e51b815260206004820152602360248201527f65786368616e676552617465206d757374206265206e6f6e2d7a65726f2076616044820152626c756560e81b6064820152608401610487565b8151516001600160a01b03163314611c8a5760405162461bcd60e51b815260206004820152601c60248201527f6f6e6c7920737761707065722063616e2073746f7265206f72646572000000006044820152606401610487565b506001919050565b604080516001600160a01b0385811660248301528416604482015260648082018490528251808303909101815260849091019091526020810180516001600160e01b03166323b872dd60e01b179052611cec908590611ea0565b50505050565b67010a741a46278000811115611d3f5760405162461bcd60e51b81526020600482015260126024820152710cec2e68ccaca40d2e640e8dede40d0d2ced60731b6044820152606401610487565b6001600160a01b038216600090815260086020526040902054811115611da75760405162461bcd60e51b815260206004820181905260248201527f646f6573206e6f74206861766520656e6f7567682066656520746f2074616b656044820152606401610487565b6001600160a01b03821660009081526008602052604081208054839290611dcf908490612350565b9091555081905060086000611dec6000546001600160a01b031690565b6001600160a01b03166001600160a01b031681526020019081526020016000206000828254611e1b9190612441565b909155505060405181906001600160a01b038416907f1b02d16d3c4c6fce038de5403c8352eb1eb62bc6915b6848683de52a24a723f890600090a35050565b6000546001600160a01b031633146118835760405163118cdaa760e01b8152336004820152602401610487565b600180546001600160a01b031916905561057681611f08565b6000611eb56001600160a01b03841683611f58565b90508051600014158015611eda575080806020019051810190611ed89190612424565b155b15611f0357604051635274afe760e01b81526001600160a01b0384166004820152602401610487565b505050565b600080546001600160a01b038381166001600160a01b0319831681178455604051919092169283917f8be0079c531659141344cd1fd0a4f28419497f9722a3daafe3b4186f6b6457e09190a35050565b6060611f6683836000611f6f565b90505b92915050565b606081471015611f945760405163cd78605960e01b8152306004820152602401610487565b600080856001600160a01b03168486604051611fb091906125e2565b60006040518083038185875af1925050503d8060008114611fed576040519150601f19603f3d011682016040523d82523d6000602084013e611ff2565b606091505b509150915061200286838361200e565b925050505b9392505050565b6060826120235761201e8261206a565b612007565b815115801561203a57506001600160a01b0384163b155b1561206357604051639996b31560e01b81526001600160a01b0385166004820152602401610487565b5080612007565b80511561207a5780518082602001fd5b604051630a12f52160e11b815260040160405180910390fd5b60405180608001604052806004906020820280368337509192915050565b6000602082840312156120c357600080fd5b5035919050565b6040516060810167ffffffffffffffff811182821017156120fb57634e487b7160e01b600052604160045260246000fd5b60405290565b60405160e0810167ffffffffffffffff811182821017156120fb57634e487b7160e01b600052604160045260246000fd5b80356001600160a01b038116811461214957600080fd5b919050565b801515811461057657600080fd5b80356001600160801b03198116811461214957600080fd5b60008183036101208112801561218957600080fd5b5060006121946120ca565b60e08312156121a1578182fd5b6121a9612101565b92506121b485612132565b83526121c260208601612132565b60208401526121d360408601612132565b60408401526121e460608601612132565b60608401526080858101359084015260a0808601359084015260c0850135915061220d8261214e565b8160c084015282815261222260e0860161215c565b6020820152612234610100860161215c565b604082015295945050505050565b8060408101831015611f6957600080fd5b60008060008060008060008060006101c08a8c03121561227257600080fd5b61227c8b8b612242565b985060c08a018b81111561228f57600080fd5b60408b01985061229f8c82612242565b9750506122af6101008b01612132565b95506101208a013594506101408a013593506101608a013592506101808a013591506101a08a0135600681106122e457600080fd5b809150509295985092959850929598565b60006020828403121561230757600080fd5b611f6682612132565b6000806040838503121561232357600080fd5b61232c83612132565b946020939093013593505050565b634e487b7160e01b600052601160045260246000fd5b81810381811115611f6957611f6961233a565b634e487b7160e01b600052603260045260246000fd5b8082028115828204841417611f6957611f6961233a565b6000826123ad57634e487b7160e01b600052601260045260246000fd5b500490565b61018081016040868337604082018560005b60028110156123e557604082843760409283019291909101906001016123c4565b50505060408460c084013761010082018360005b60048110156124185781518352602092830192909101906001016123f9565b50505095945050505050565b60006020828403121561243657600080fd5b81516120078161214e565b80820180821115611f6957611f6961233a565b634e487b7160e01b600052602160045260246000fd5b81516001600160a01b03908116825260208084015182169083015260408084015162ffffff169083015260608084015191821690830152610100820190506080830151608083015260a083015160a083015260c083015160c083015260e08301516124e060e08401826001600160a01b03169052565b5092915050565b6000602082840312156124f957600080fd5b5051919050565b60005b8381101561251b578181015183820152602001612503565b50506000910152565b602081526000825160a0602084015280518060c085015261254c8160e0860160208501612500565b60018060a01b0360208601511660408501526040850151606085015260608501516080850152608085015160a085015260e0601f19601f8301168501019250505092915050565b6001600160a01b03968716815294861660208601529290941660408401526060830152608082019290925290151560a082015260c00190565b634e487b7160e01b600052603160045260246000fd5b600082516125f4818460208701612500565b919091019291505056fea264697066735822122054bc4135fe9fd828bd1d26823b891c1a7a58adbbbd697dd07672f8ab99fc065d64736f6c634300081c0033","linkReferences":{}},"methodIdentifiers":{"acceptOwnership()":"79ba5097","addPendingOrder(((address,address,address,address,uint256,uint256,bool),bytes16,bytes16))":"3c188927","agent()":"f5ff5c76","cancelOrder(uint256)":"514fcac7","depositForGasFee(address)":"6b5da867","gasfee(address)":"8abfcba3","orderbook(address,uint256)":"c7d0862d","owner()":"8da5cb5b","pendingOwner()":"e30c3978","renounceOwnership()":"715018a6","router()":"f887ea40","setAgent(address)":"bcf685ed","setRouter(address)":"c0d78655","setVerifier(address)":"5437988d","swapForward(uint256[2],uint256[2][2],uint256[2],address,uint256,uint256,uint256,uint256,uint8)":"458f9a86","transferOwnership(address)":"f2fde38b","verifier()":"2b7ac3f3","weth()":"3fc8cef3","withdrawGasFee(uint256)":"19c0f1ce","withdrawTakenFee()":"56ab9955"},"id":11}